{
  "contractName": "Credit",
  "abi": [
    {
      "constant": true,
      "inputs": [],
      "name": "getBalance",
      "outputs": [
        {
          "name": "",
          "type": "uint256"
        }
      ],
      "payable": false,
      "stateMutability": "view",
      "type": "function"
    },
    {
      "constant": false,
      "inputs": [
        {
          "name": "_state",
          "type": "uint8"
        }
      ],
      "name": "changeState",
      "outputs": [
        {
          "name": "",
          "type": "uint256"
        }
      ],
      "payable": false,
      "stateMutability": "nonpayable",
      "type": "function"
    },
    {
      "constant": true,
      "inputs": [
        {
          "name": "",
          "type": "address"
        }
      ],
      "name": "lenders",
      "outputs": [
        {
          "name": "",
          "type": "bool"
        }
      ],
      "payable": false,
      "stateMutability": "view",
      "type": "function"
    },
    {
      "constant": false,
      "inputs": [],
      "name": "toggleActive",
      "outputs": [
        {
          "name": "",
          "type": "bool"
        }
      ],
      "payable": false,
      "stateMutability": "nonpayable",
      "type": "function"
    },
    {
      "constant": false,
      "inputs": [],
      "name": "withdraw",
      "outputs": [],
      "payable": false,
      "stateMutability": "nonpayable",
      "type": "function"
    },
    {
      "constant": false,
      "inputs": [],
      "name": "repay",
      "outputs": [],
      "payable": true,
      "stateMutability": "payable",
      "type": "function"
    },
    {
      "constant": false,
      "inputs": [],
      "name": "revokeVote",
      "outputs": [],
      "payable": false,
      "stateMutability": "nonpayable",
      "type": "function"
    },
    {
      "constant": false,
      "inputs": [],
      "name": "refund",
      "outputs": [],
      "payable": false,
      "stateMutability": "nonpayable",
      "type": "function"
    },
    {
      "constant": false,
      "inputs": [],
      "name": "destroy",
      "outputs": [],
      "payable": false,
      "stateMutability": "nonpayable",
      "type": "function"
    },
    {
      "constant": true,
      "inputs": [],
      "name": "owner",
      "outputs": [
        {
          "name": "",
          "type": "address"
        }
      ],
      "payable": false,
      "stateMutability": "view",
      "type": "function"
    },
    {
      "constant": false,
      "inputs": [],
      "name": "fraudVote",
      "outputs": [
        {
          "name": "",
          "type": "bool"
        }
      ],
      "payable": false,
      "stateMutability": "nonpayable",
      "type": "function"
    },
    {
      "constant": false,
      "inputs": [],
      "name": "invest",
      "outputs": [],
      "payable": true,
      "stateMutability": "payable",
      "type": "function"
    },
    {
      "constant": false,
      "inputs": [],
      "name": "requestInterest",
      "outputs": [],
      "payable": false,
      "stateMutability": "nonpayable",
      "type": "function"
    },
    {
      "constant": true,
      "inputs": [],
      "name": "getCreditInfo",
      "outputs": [
        {
          "name": "",
          "type": "address"
        },
        {
          "name": "",
          "type": "bytes32"
        },
        {
          "name": "",
          "type": "uint256"
        },
        {
          "name": "",
          "type": "uint256"
        },
        {
          "name": "",
          "type": "uint256"
        },
        {
          "name": "",
          "type": "uint256"
        },
        {
          "name": "",
          "type": "uint256"
        },
        {
          "name": "",
          "type": "uint256"
        },
        {
          "name": "",
          "type": "uint8"
        },
        {
          "name": "",
          "type": "bool"
        },
        {
          "name": "",
          "type": "uint256"
        }
      ],
      "payable": false,
      "stateMutability": "view",
      "type": "function"
    },
    {
      "constant": false,
      "inputs": [
        {
          "name": "_recipient",
          "type": "address"
        }
      ],
      "name": "destroyAndSend",
      "outputs": [],
      "payable": false,
      "stateMutability": "nonpayable",
      "type": "function"
    },
    {
      "inputs": [
        {
          "name": "_requestedAmount",
          "type": "uint256"
        },
        {
          "name": "_requestedRepayments",
          "type": "uint256"
        },
        {
          "name": "_interest",
          "type": "uint256"
        },
        {
          "name": "_description",
          "type": "bytes32"
        }
      ],
      "payable": false,
      "stateMutability": "nonpayable",
      "type": "constructor"
    },
    {
      "anonymous": false,
      "inputs": [
        {
          "indexed": true,
          "name": "_address",
          "type": "address"
        },
        {
          "indexed": true,
          "name": "timestamp",
          "type": "uint256"
        }
      ],
      "name": "LogCreditInitialized",
      "type": "event"
    },
    {
      "anonymous": false,
      "inputs": [
        {
          "indexed": true,
          "name": "state",
          "type": "uint8"
        },
        {
          "indexed": true,
          "name": "timestamp",
          "type": "uint256"
        }
      ],
      "name": "LogCreditStateChanged",
      "type": "event"
    },
    {
      "anonymous": false,
      "inputs": [
        {
          "indexed": true,
          "name": "active",
          "type": "bool"
        },
        {
          "indexed": true,
          "name": "timestamp",
          "type": "uint256"
        }
      ],
      "name": "LogCreditStateActiveChanged",
      "type": "event"
    },
    {
      "anonymous": false,
      "inputs": [
        {
          "indexed": true,
          "name": "_address",
          "type": "address"
        },
        {
          "indexed": true,
          "name": "_amount",
          "type": "uint256"
        },
        {
          "indexed": true,
          "name": "timestamp",
          "type": "uint256"
        }
      ],
      "name": "LogBorrowerWithdrawal",
      "type": "event"
    },
    {
      "anonymous": false,
      "inputs": [
        {
          "indexed": true,
          "name": "_address",
          "type": "address"
        },
        {
          "indexed": true,
          "name": "_amount",
          "type": "uint256"
        },
        {
          "indexed": true,
          "name": "timestamp",
          "type": "uint256"
        }
      ],
      "name": "LogBorrowerRepaymentInstallment",
      "type": "event"
    },
    {
      "anonymous": false,
      "inputs": [
        {
          "indexed": true,
          "name": "_address",
          "type": "address"
        },
        {
          "indexed": true,
          "name": "timestamp",
          "type": "uint256"
        }
      ],
      "name": "LogBorrowerRepaymentFinished",
      "type": "event"
    },
    {
      "anonymous": false,
      "inputs": [
        {
          "indexed": true,
          "name": "_address",
          "type": "address"
        },
        {
          "indexed": true,
          "name": "_amount",
          "type": "uint256"
        },
        {
          "indexed": true,
          "name": "timestamp",
          "type": "uint256"
        }
      ],
      "name": "LogBorrowerChangeReturned",
      "type": "event"
    },
    {
      "anonymous": false,
      "inputs": [
        {
          "indexed": true,
          "name": "_address",
          "type": "address"
        },
        {
          "indexed": true,
          "name": "fraudStatus",
          "type": "bool"
        },
        {
          "indexed": true,
          "name": "timestamp",
          "type": "uint256"
        }
      ],
      "name": "LogBorrowerIsFraud",
      "type": "event"
    },
    {
      "anonymous": false,
      "inputs": [
        {
          "indexed": true,
          "name": "_address",
          "type": "address"
        },
        {
          "indexed": true,
          "name": "_amount",
          "type": "uint256"
        },
        {
          "indexed": true,
          "name": "timestamp",
          "type": "uint256"
        }
      ],
      "name": "LogLenderInvestment",
      "type": "event"
    },
    {
      "anonymous": false,
      "inputs": [
        {
          "indexed": true,
          "name": "_address",
          "type": "address"
        },
        {
          "indexed": true,
          "name": "_amount",
          "type": "uint256"
        },
        {
          "indexed": true,
          "name": "timestamp",
          "type": "uint256"
        }
      ],
      "name": "LogLenderWithdrawal",
      "type": "event"
    },
    {
      "anonymous": false,
      "inputs": [
        {
          "indexed": true,
          "name": "_address",
          "type": "address"
        },
        {
          "indexed": true,
          "name": "_amount",
          "type": "uint256"
        },
        {
          "indexed": true,
          "name": "timestamp",
          "type": "uint256"
        }
      ],
      "name": "LogLenderChangeReturned",
      "type": "event"
    },
    {
      "anonymous": false,
      "inputs": [
        {
          "indexed": true,
          "name": "_address",
          "type": "address"
        },
        {
          "indexed": true,
          "name": "timestamp",
          "type": "uint256"
        }
      ],
      "name": "LogLenderVoteForRevoking",
      "type": "event"
    },
    {
      "anonymous": false,
      "inputs": [
        {
          "indexed": true,
          "name": "_address",
          "type": "address"
        },
        {
          "indexed": true,
          "name": "timestamp",
          "type": "uint256"
        }
      ],
      "name": "LogLenderVoteForFraud",
      "type": "event"
    },
    {
      "anonymous": false,
      "inputs": [
        {
          "indexed": true,
          "name": "_address",
          "type": "address"
        },
        {
          "indexed": true,
          "name": "_amount",
          "type": "uint256"
        },
        {
          "indexed": true,
          "name": "timestamp",
          "type": "uint256"
        }
      ],
      "name": "LogLenderRefunded",
      "type": "event"
    },
    {
      "anonymous": false,
      "inputs": [
        {
          "indexed": true,
          "name": "_currentOwner",
          "type": "address"
        },
        {
          "indexed": true,
          "name": "_newOwner",
          "type": "address"
        }
      ],
      "name": "LogOwnershipTransfered",
      "type": "event"
    }
  ],
  "bytecode": "0x60606040526001600c60006101000a81548160ff0219169083151502179055506000600f55600060105560014201601255600060135534156200004157600080fd5b60405160808062001daf83398101604052808051906020019091908051906020019091908051906020019091908051906020019091905050336000806101000a81548173ffffffffffffffffffffffffffffffffffffffff021916908373ffffffffffffffffffffffffffffffffffffffff16021790555032600160006101000a81548173ffffffffffffffffffffffffffffffffffffffff021916908373ffffffffffffffffffffffffffffffffffffffff160217905550816005819055508360028190555082600681905550826007819055506200013d600554600254620001f264010000000002620018ff179091906401000000009004565b6003819055506200016a600654600354620002116401000000000262001b2b179091906401000000009004565b60088190555080600b81600019169055504260098190555042600160009054906101000a900473ffffffffffffffffffffffffffffffffffffffff1673ffffffffffffffffffffffffffffffffffffffff167ff9f75c99c0e3522cd19ffc66fd6c94989a3f0821d37d5c5bb176aab904c6335d60405160405180910390a3505050506200022d565b60008082840190508381101515156200020757fe5b8091505092915050565b60008082848115156200022057fe5b0490508091505092915050565b611b72806200023d6000396000f3006060604052600436106100db576000357c0100000000000000000000000000000000000000000000000000000000900463ffffffff16806312065fe0146100e0578063268f11531461010957806328fd10d71461014357806329c68dc1146101945780633ccfd60b146101c1578063402d8883146101d657806343c14b22146101e0578063590e1ae3146101f557806383197ef01461020a5780638da5cb5b1461021f578063d85da7b614610274578063e8b5e51f146102a1578063efd475ab146102ab578063f06817cf146102c0578063f5074f4114610375575b600080fd5b34156100eb57600080fd5b6100f36103ae565b6040518082815260200191505060405180910390f35b341561011457600080fd5b61012d600480803560ff169060200190919050506103cd565b6040518082815260200191505060405180910390f35b341561014e57600080fd5b61017a600480803573ffffffffffffffffffffffffffffffffffffffff1690602001909190505061049a565b604051808215151515815260200191505060405180910390f35b341561019f57600080fd5b6101a76104ba565b604051808215151515815260200191505060405180910390f35b34156101cc57600080fd5b6101d4610595565b005b6101de6107b2565b005b34156101eb57600080fd5b6101f3610aa9565b005b341561020057600080fd5b610208610c8b565b005b341561021557600080fd5b61021d610f8e565b005b341561022a57600080fd5b610232611023565b604051808273ffffffffffffffffffffffffffffffffffffffff1673ffffffffffffffffffffffffffffffffffffffff16815260200191505060405180910390f35b341561027f57600080fd5b610287611048565b604051808215151515815260200191505060405180910390f35b6102a96111f3565b005b34156102b657600080fd5b6102be611525565b005b34156102cb57600080fd5b6102d36117ce565b604051808c73ffffffffffffffffffffffffffffffffffffffff1673ffffffffffffffffffffffffffffffffffffffff1681526020018b600019166000191681526020018a815260200189815260200188815260200187815260200186815260200185815260200184600581111561034757fe5b60ff168152602001831515151581526020018281526020019b50505050505050505050505060405180910390f35b341561038057600080fd5b6103ac600480803573ffffffffffffffffffffffffffffffffffffffff16906020019091905050611872565b005b60003073ffffffffffffffffffffffffffffffffffffffff1631905090565b60008060009054906101000a900473ffffffffffffffffffffffffffffffffffffffff1673ffffffffffffffffffffffffffffffffffffffff163373ffffffffffffffffffffffffffffffffffffffff1614151561042a57600080fd5b81600c60016101000a81548160ff0219169083600581111561044857fe5b021790555042600c60019054906101000a900460ff16600581111561046957fe5b7faaae373901e745122c2e0925ad006227969c6cd190b7d5ea2fb7fdbd1d955b3560405160405180910390a3919050565b600d6020528060005260406000206000915054906101000a900460ff1681565b60008060009054906101000a900473ffffffffffffffffffffffffffffffffffffffff1673ffffffffffffffffffffffffffffffffffffffff163373ffffffffffffffffffffffffffffffffffffffff1614151561051757600080fd5b600c60009054906101000a900460ff1615600c60006101000a81548160ff02191690831515021790555042600c60009054906101000a900460ff1615157f160914ea27c60aa29a5f3a69d74e6069869de36e38939de1e0a66b921d8623d260405160405180910390a3600c60009054906101000a900460ff16905090565b60011515600c60009054906101000a900460ff1615151415156105b757600080fd5b600160009054906101000a900473ffffffffffffffffffffffffffffffffffffffff1673ffffffffffffffffffffffffffffffffffffffff163373ffffffffffffffffffffffffffffffffffffffff1614151561061357600080fd5b6002543073ffffffffffffffffffffffffffffffffffffffff16311015151561063b57600080fd5b60058081111561064757fe5b600c60019054906101000a900460ff16600581111561066257fe5b1415151561066f57600080fd5b6001600c60016101000a81548160ff0219169083600581111561068e57fe5b021790555042600c60019054906101000a900460ff1660058111156106af57fe5b7faaae373901e745122c2e0925ad006227969c6cd190b7d5ea2fb7fdbd1d955b3560405160405180910390a3423073ffffffffffffffffffffffffffffffffffffffff16313373ffffffffffffffffffffffffffffffffffffffff167f20734f14d107b526674905e470e35d0a474f9fb996a7bdb034c839c8894524e660405160405180910390a4600160009054906101000a900473ffffffffffffffffffffffffffffffffffffffff1673ffffffffffffffffffffffffffffffffffffffff166108fc3073ffffffffffffffffffffffffffffffffffffffff16319081150290604051600060405180830381858888f1935050505015156107b057600080fd5b565b6000600160009054906101000a900473ffffffffffffffffffffffffffffffffffffffff1673ffffffffffffffffffffffffffffffffffffffff163373ffffffffffffffffffffffffffffffffffffffff1614151561081057600080fd5b6001600581111561081d57fe5b600c60019054906101000a900460ff16600581111561083857fe5b14151561084457600080fd5b600060075411151561085557600080fd5b600854341015151561086657600080fd5b60035460045410151561087557fe5b6007600081548092919060019003919050555042600a8190555060009050600854341115610965576108b2600854346118e690919063ffffffff16565b90506108c781346118e690919063ffffffff16565b6008541415156108d357fe5b3481111515156108df57fe5b3373ffffffffffffffffffffffffffffffffffffffff166108fc829081150290604051600060405180830381858888f19350505050151561091f57600080fd5b42813373ffffffffffffffffffffffffffffffffffffffff167f5c9874487a2258c6bd6dc39a2cfcf7ea944b50b79d9a7152668779687b2ebd8d60405160405180910390a45b4261097982346118e690919063ffffffff16565b3373ffffffffffffffffffffffffffffffffffffffff167f350a09487d622378c6efbda255f996387696319f803a2e53eee64f7aa70be85a60405160405180910390a46109e36109d282346118e690919063ffffffff16565b6004546118ff90919063ffffffff16565b6004819055506003546004541415610aa657423373ffffffffffffffffffffffffffffffffffffffff167f25630de45a38a90cbca3a2eb35a8197e51b56d6d912581711e5e3773fe77cabc60405160405180910390a36002600c60016101000a81548160ff02191690836005811115610a5857fe5b021790555042600c60019054906101000a900460ff166005811115610a7957fe5b7faaae373901e745122c2e0925ad006227969c6cd190b7d5ea2fb7fdbd1d955b3560405160405180910390a35b50565b60011515600c60009054906101000a900460ff161515141515610acb57600080fd5b6012544210151515610adc57600080fd5b60006005811115610ae957fe5b600c60019054906101000a900460ff166005811115610b0457fe5b141515610b1057600080fd5b60011515600d60003373ffffffffffffffffffffffffffffffffffffffff1673ffffffffffffffffffffffffffffffffffffffff16815260200190815260200160002060009054906101000a900460ff161515141515610b6f57600080fd5b60001515601160003373ffffffffffffffffffffffffffffffffffffffff1673ffffffffffffffffffffffffffffffffffffffff16815260200190815260200160002060009054906101000a900460ff161515141515610bce57600080fd5b60106000815480929190600101919050555060011515601160003373ffffffffffffffffffffffffffffffffffffffff1673ffffffffffffffffffffffffffffffffffffffff16815260200190815260200160002060009054906101000a90505050423373ffffffffffffffffffffffffffffffffffffffff167fd7173ce7e4ce6f6d075259ac1a467ab8290db175a2cee8587a663c006b97e12960405160405180910390a3601054600f541415610c8957610c8861191d565b5b565b60011515600c60009054906101000a900460ff161515141515610cad57600080fd5b60011515600d60003373ffffffffffffffffffffffffffffffffffffffff1673ffffffffffffffffffffffffffffffffffffffff16815260200190815260200160002060009054906101000a900460ff161515141515610d0c57600080fd5b60046005811115610d1957fe5b600c60019054906101000a900460ff166005811115610d3457fe5b141515610d4057600080fd5b600e60003373ffffffffffffffffffffffffffffffffffffffff1673ffffffffffffffffffffffffffffffffffffffff168152602001908152602001600020543073ffffffffffffffffffffffffffffffffffffffff163110151515610da257fe5b3373ffffffffffffffffffffffffffffffffffffffff166108fc600e60003373ffffffffffffffffffffffffffffffffffffffff1673ffffffffffffffffffffffffffffffffffffffff168152602001908152602001600020549081150290604051600060405180830381858888f193505050501515610e2157600080fd5b42600e60003373ffffffffffffffffffffffffffffffffffffffff1673ffffffffffffffffffffffffffffffffffffffff168152602001908152602001600020543373ffffffffffffffffffffffffffffffffffffffff167f71e252e33f19f0223f47f27d00910548d26488b9b55cb5b410b75e273152f8d660405160405180910390a460003073ffffffffffffffffffffffffffffffffffffffff16311415610f8c576000600c60006101000a81548160ff02191690831515021790555042600c60009054906101000a900460ff1615157f160914ea27c60aa29a5f3a69d74e6069869de36e38939de1e0a66b921d8623d260405160405180910390a36003600c60016101000a81548160ff02191690836005811115610f3e57fe5b021790555042600c60019054906101000a900460ff166005811115610f5f57fe5b7faaae373901e745122c2e0925ad006227969c6cd190b7d5ea2fb7fdbd1d955b3560405160405180910390a35b565b6000809054906101000a900473ffffffffffffffffffffffffffffffffffffffff1673ffffffffffffffffffffffffffffffffffffffff163373ffffffffffffffffffffffffffffffffffffffff16141515610fe957600080fd5b6000809054906101000a900473ffffffffffffffffffffffffffffffffffffffff1673ffffffffffffffffffffffffffffffffffffffff16ff5b6000809054906101000a900473ffffffffffffffffffffffffffffffffffffffff1681565b600060011515600c60009054906101000a900460ff16151514151561106c57600080fd5b60011515600d60003373ffffffffffffffffffffffffffffffffffffffff1673ffffffffffffffffffffffffffffffffffffffff16815260200190815260200160002060009054906101000a900460ff1615151415156110cb57600080fd5b60001515601460003373ffffffffffffffffffffffffffffffffffffffff1673ffffffffffffffffffffffffffffffffffffffff16815260200190815260200160002060009054906101000a900460ff16151514151561112a57600080fd5b60136000815480929190600101919050555060011515601460003373ffffffffffffffffffffffffffffffffffffffff1673ffffffffffffffffffffffffffffffffffffffff16815260200190815260200160002060009054906101000a90505050423373ffffffffffffffffffffffffffffffffffffffff167f1db613004119dde2a638b639fba9960c0e6064ee7c2d06f300e41c78920ed6dc60405160405180910390a3601354600f5414156111eb576111e461198b565b90506111f0565b600190505b90565b600080600581111561120157fe5b600c60019054906101000a900460ff16600581111561121c57fe5b14151561122857600080fd5b600090506002543073ffffffffffffffffffffffffffffffffffffffff16311015156113ba5761127a6002543073ffffffffffffffffffffffffffffffffffffffff16316118e690919063ffffffff16565b90506112a6813073ffffffffffffffffffffffffffffffffffffffff16316118e690919063ffffffff16565b6002541415156112b257fe5b3481111515156112be57fe5b600081111561134d573373ffffffffffffffffffffffffffffffffffffffff166108fc829081150290604051600060405180830381858888f19350505050151561130757600080fd5b42813373ffffffffffffffffffffffffffffffffffffffff167f566803f6e271b911c84f87631bcd310d6a6510bf8882577a96fc76975703e43160405160405180910390a45b6001600c60016101000a81548160ff0219169083600581111561136c57fe5b021790555042600c60019054906101000a900460ff16600581111561138d57fe5b7faaae373901e745122c2e0925ad006227969c6cd190b7d5ea2fb7fdbd1d955b3560405160405180910390a35b6001600d60003373ffffffffffffffffffffffffffffffffffffffff1673ffffffffffffffffffffffffffffffffffffffff16815260200190815260200160002060006101000a81548160ff021916908315150217905550600f6000815480929190600101919050555061148861143a82346118e690919063ffffffff16565b600e60003373ffffffffffffffffffffffffffffffffffffffff1673ffffffffffffffffffffffffffffffffffffffff168152602001908152602001600020546118ff90919063ffffffff16565b600e60003373ffffffffffffffffffffffffffffffffffffffff1673ffffffffffffffffffffffffffffffffffffffff16815260200190815260200160002081905550426114df82346118e690919063ffffffff16565b3373ffffffffffffffffffffffffffffffffffffffff167f1b0969ce7f5b05c5e0969329a05cdbd7e2e2f6cee33ba26fd6e6bbcff82312cd60405160405180910390a450565b600060011515600c60009054906101000a900460ff16151514151561154957600080fd5b60011515600d60003373ffffffffffffffffffffffffffffffffffffffff1673ffffffffffffffffffffffffffffffffffffffff16815260200190815260200160002060009054906101000a900460ff1615151415156115a857600080fd5b600260058111156115b557fe5b600c60019054906101000a900460ff1660058111156115d057fe5b1415156115dc57600080fd5b6000600e60003373ffffffffffffffffffffffffffffffffffffffff1673ffffffffffffffffffffffffffffffffffffffff1681526020019081526020016000205411151561162a57600080fd5b600f5460035481151561163957fe5b049050803073ffffffffffffffffffffffffffffffffffffffff16311015151561165f57fe5b3373ffffffffffffffffffffffffffffffffffffffff166108fc829081150290604051600060405180830381858888f19350505050151561169f57600080fd5b42813373ffffffffffffffffffffffffffffffffffffffff167f052f6685df2f773f854b17db1d82e2352e222010daaf8175761f02ef8782c40360405160405180910390a460003073ffffffffffffffffffffffffffffffffffffffff163114156117cb576000600c60006101000a81548160ff02191690831515021790555042600c60009054906101000a900460ff1615157f160914ea27c60aa29a5f3a69d74e6069869de36e38939de1e0a66b921d8623d260405160405180910390a36003600c60016101000a81548160ff0219169083600581111561177d57fe5b021790555042600c60019054906101000a900460ff16600581111561179e57fe5b7faaae373901e745122c2e0925ad006227969c6cd190b7d5ea2fb7fdbd1d955b3560405160405180910390a35b50565b6000806000806000806000806000806000600160009054906101000a900473ffffffffffffffffffffffffffffffffffffffff16600b54600254600654600854600754600554600354600c60019054906101000a900460ff16600c60009054906101000a900460ff163073ffffffffffffffffffffffffffffffffffffffff16319a509a509a509a509a509a509a509a509a509a509a50909192939495969798999a565b6000809054906101000a900473ffffffffffffffffffffffffffffffffffffffff1673ffffffffffffffffffffffffffffffffffffffff163373ffffffffffffffffffffffffffffffffffffffff161415156118cd57600080fd5b8073ffffffffffffffffffffffffffffffffffffffff16ff5b60008282111515156118f457fe5b818303905092915050565b600080828401905083811015151561191357fe5b8091505092915050565b6004600c60016101000a81548160ff0219169083600581111561193c57fe5b021790555042600c60019054906101000a900460ff16600581111561195d57fe5b7faaae373901e745122c2e0925ad006227969c6cd190b7d5ea2fb7fdbd1d955b3560405160405180910390a3565b6000806000809054906101000a900473ffffffffffffffffffffffffffffffffffffffff1673ffffffffffffffffffffffffffffffffffffffff1660405180807f7365744672617564537461747573286164647265737329000000000000000000815250601701905060405180910390207c01000000000000000000000000000000000000000000000000000000009004600160009054906101000a900473ffffffffffffffffffffffffffffffffffffffff166040518263ffffffff167c0100000000000000000000000000000000000000000000000000000000028152600401808273ffffffffffffffffffffffffffffffffffffffff1673ffffffffffffffffffffffffffffffffffffffff16815260200191505060006040518083038160008761646e5a03f192505050905042811515600160009054906101000a900473ffffffffffffffffffffffffffffffffffffffff1673ffffffffffffffffffffffffffffffffffffffff167fc1bb1d1e99d1e8d2705ba85717226a3fd9a86e4de2284b00dfe6f33538d5249f60405160405180910390a48091505090565b6000808284811515611b3957fe5b04905080915050929150505600a165627a7a723058208e1d0033323015c5b83f60bfd2b52d538dfdbb6c3718906026503a7b2b25d9b70029",
  "source": "pragma solidity ^0.4.18;\n\nimport './common/SafeMath.sol';\nimport './common/Destructible.sol';\n\n/** @title Credit contract.\n  * Inherits the Ownable and Destructible contracts.\n  */\ncontract Credit is Destructible {\n\n    /** @dev Usings */\n    // Using SafeMath for our calculations with uints.\n    using SafeMath for uint;\n\n    /** @dev State variables */\n    // Borrower is the person who generated the credit contract.\n    address borrower;\n\n    // Amount requested to be funded (in wei).\n    uint requestedAmount;\n\n    // Amount that will be returned by the borrower (including the interest).\n    uint returnAmount;\n\n    // Currently repaid amount.\n    uint repaidAmount;\n\n    // Credit interest.\n    uint interest;\n\n    // Requested number of repayment installments.\n    uint requestedRepayments;\n\n    // Remaining repayment installments.\n    uint remainingRepayments;\n\n    // The value of the repayment installment.\n    uint repaymentInstallment;\n\n    // The timestamp of credit creation.\n    uint requestedDate;\n\n    // The timestamp of last repayment date.\n    uint lastRepaymentDate;\n\n    // Description of the credit.\n    bytes32 description;\n\n    // Active state of the credit.\n    bool active = true;\n\n    /** Stages that every credit contract gets trough.\n      *   investment - During this state only investments are allowed.\n      *   repayment - During this stage only repayments are allowed.\n      *   interestReturns - This stage gives investors opportunity to request their returns.\n      *   expired - This is the stage when the contract is finished its purpose.\n      *   fraud - The borrower was marked as fraud.\n    */\n    enum State { investment, repayment, interestReturns, expired, revoked, fraud }\n    State state;\n\n    // Storing the lenders for this credit.\n    mapping(address => bool) public lenders;\n\n    // Storing the invested amount by each lender.\n    mapping(address => uint) lendersInvestedAmount;\n\n    // Store the lenders count, later needed for revoke vote.\n    uint lendersCount = 0;\n\n    // Revoke votes count.\n    uint revokeVotes = 0;\n\n    // Revoke voters.\n    mapping(address => bool) revokeVoters;\n\n    // Time needed for a revoke voting to start.\n    // To be changed in production accordingly.\n    uint revokeTimeNeeded = block.timestamp + 1 seconds;\n\n    // Revoke votes count.\n    uint fraudVotes = 0;\n\n    // Revoke voters.\n    mapping(address => bool) fraudVoters;\n\n\n    /** @dev Events\n    *\n    */\n    event LogCreditInitialized(address indexed _address, uint indexed timestamp);\n    event LogCreditStateChanged(State indexed state, uint indexed timestamp);\n    event LogCreditStateActiveChanged(bool indexed active, uint indexed timestamp);\n\n    event LogBorrowerWithdrawal(address indexed _address, uint indexed _amount, uint indexed timestamp);\n    event LogBorrowerRepaymentInstallment(address indexed _address, uint indexed _amount, uint indexed timestamp);\n    event LogBorrowerRepaymentFinished(address indexed _address, uint indexed timestamp);\n    event LogBorrowerChangeReturned(address indexed _address, uint indexed _amount, uint indexed timestamp);\n    event LogBorrowerIsFraud(address indexed _address, bool indexed fraudStatus, uint indexed timestamp);\n\n    event LogLenderInvestment(address indexed _address, uint indexed _amount, uint indexed timestamp);\n    event LogLenderWithdrawal(address indexed _address, uint indexed _amount, uint indexed timestamp);\n    event LogLenderChangeReturned(address indexed _address, uint indexed _amount, uint indexed timestamp);\n    event LogLenderVoteForRevoking(address indexed _address, uint indexed timestamp);\n    event LogLenderVoteForFraud(address indexed _address, uint indexed timestamp);\n    event LogLenderRefunded(address indexed _address, uint indexed _amount, uint indexed timestamp);\n\n    /** @dev Modifiers\n    *\n    */\n    modifier isActive() {\n        require(active == true);\n        _;\n    }\n\n    modifier onlyBorrower() {\n        require(msg.sender == borrower);\n        _;\n    }\n\n    modifier onlyLender() {\n        require(lenders[msg.sender] == true);\n        _;\n    }\n\n    modifier canAskForInterest() {\n        require(state == State.interestReturns);\n        require(lendersInvestedAmount[msg.sender] > 0);\n        _;\n    }\n\n    modifier canInvest() {\n        require(state == State.investment);\n        _;\n    }\n\n    modifier canRepay() {\n        require(state == State.repayment);\n        _;\n    }\n\n    modifier canWithdraw() {\n        require(this.balance >= requestedAmount);\n        _;\n    }\n\n    modifier isNotFraud() {\n        require(state != State.fraud);\n        _;\n    }\n\n    modifier isRevokable() {\n        require(block.timestamp >= revokeTimeNeeded);\n        require(state == State.investment);\n        _;\n    }\n\n    modifier isRevoked() {\n        require(state == State.revoked);\n        _;\n    }\n\n    /** @dev Constructor.\n      * @param _requestedAmount Requested credit amount (in wei).\n      * @param _requestedRepayments Requested number of repayments.\n      * @param _description Credit description.\n      */\n    function Credit(uint _requestedAmount, uint _requestedRepayments, uint _interest, bytes32 _description) public {\n\n        /** Set the borrower of the contract to the tx.origin\n          * We are using tx.origin, because the contract is going to be published\n          * by the main contract and msg.sender will break our logic.\n        */\n        borrower = tx.origin;\n\n        // Set the interest for the credit.\n        interest = _interest;\n\n        // Set the requested amount.\n        requestedAmount = _requestedAmount;\n\n        // Set the requested repayments.\n        requestedRepayments = _requestedRepayments;\n\n        /** Set the remaining repayments.\n          * Initially this is equal to the requested repayments.\n          */\n        remainingRepayments = _requestedRepayments;\n\n        /** Calculate the amount to be returned by the borrower.\n          * At this point this is the addition of the requested amount and the interest.\n          */\n        returnAmount = requestedAmount.add(interest);\n\n        /** Calculating the repayment installment.\n          * We divide the amount to be returned by the requested repayments count to get it.\n          */\n        repaymentInstallment = returnAmount.div(requestedRepayments);\n\n        // Set the credit description.\n        description = _description;\n\n        // Set the initialization date.\n        requestedDate = block.timestamp;\n\n        // Log credit initialization.\n        LogCreditInitialized(borrower, block.timestamp);\n    }\n\n    /** @dev Get current balance.\n      * @return this.balance.\n      */\n    function getBalance() public view returns (uint256) {\n        return this.balance;\n    }\n\n    /** @dev Invest function.\n      * Provides functionality for person to invest in someone's credit,\n      * incentivised by the return of interest.\n      */\n    function invest() public canInvest payable {\n        // Initialize an memory variable for the extra money that may have been sent.\n        uint extraMoney = 0;\n\n        // Check if contract balance is reached the requested amount.\n        if (this.balance >= requestedAmount) {\n\n            // Calculate the extra money that may have been sent.\n            extraMoney = this.balance.sub(requestedAmount);\n\n            // Assert the calculations\n            assert(requestedAmount == this.balance.sub(extraMoney));\n\n            // Assert for possible underflow / overflow\n            assert(extraMoney <= msg.value);\n\n            // Check if extra money is greater than 0 wei.\n            if (extraMoney > 0) {\n                // Return the extra money to the sender.\n                msg.sender.transfer(extraMoney);\n\n                // Log change returned.\n                LogLenderChangeReturned(msg.sender, extraMoney, block.timestamp);\n            }\n\n            // Set the contract state to repayment.\n            state = State.repayment;\n\n            // Log state change.\n            LogCreditStateChanged(state, block.timestamp);\n        }\n\n        /** Add the investor to the lenders mapping.\n          * So that we know he invested in this contract.\n          */\n        lenders[msg.sender] = true;\n\n        // Increment the lenders count.\n        lendersCount++;\n\n        // Add the amount invested to the amount mapping.\n        lendersInvestedAmount[msg.sender] = lendersInvestedAmount[msg.sender].add(msg.value.sub(extraMoney));\n\n        // Log lender invested amount.\n        LogLenderInvestment(msg.sender, msg.value.sub(extraMoney), block.timestamp);\n    }\n\n    /** @dev Repayment function.\n      * Allows borrower to make repayment installments.\n      */\n    function repay() public onlyBorrower canRepay payable {\n        // The remaining repayments should be greater than 0 to continue.\n        require(remainingRepayments > 0);\n\n        // The value sent should be greater than the repayment installment.\n        require(msg.value >= repaymentInstallment);\n\n        /** Assert that the amount to be returned is greater\n          * than the sum of repayments made until now.\n          * Otherwise the credit is already repaid.\n          */\n        assert(repaidAmount < returnAmount);\n\n        // Decrement the remaining repayments.\n        remainingRepayments--;\n\n        // Update last repayment date.\n        lastRepaymentDate = block.timestamp;\n\n        // Initialize an memory variable for the extra money that may have been sent.\n        uint extraMoney = 0;\n\n        /** Check if the value (in wei) that is being sent is greather than the repayment installment.\n          * In this case we should return the change to the msg.sender.\n          */\n        if (msg.value > repaymentInstallment) {\n\n            // Calculate the extra money being sent in the transaction.\n            extraMoney = msg.value.sub(repaymentInstallment);\n\n            // Assert the calculations.\n            assert(repaymentInstallment == msg.value.sub(extraMoney));\n\n            // Assert for underflow.\n            assert(extraMoney <= msg.value);\n\n            // Return the change/extra money to the msg.sender.\n            msg.sender.transfer(extraMoney);\n\n            // Log the return of the extra money.\n            LogBorrowerChangeReturned(msg.sender, extraMoney, block.timestamp);\n        }\n\n        // Log borrower installment received.\n        LogBorrowerRepaymentInstallment(msg.sender, msg.value.sub(extraMoney), block.timestamp);\n\n        // Add the repayment installment amount to the total repaid amount.\n        repaidAmount = repaidAmount.add(msg.value.sub(extraMoney));\n\n        // Check the repaid amount reached the amount to be returned.\n        if (repaidAmount == returnAmount) {\n\n            // Log credit repaid.\n            LogBorrowerRepaymentFinished(msg.sender, block.timestamp);\n\n            // Set the credit state to \"returning interests\".\n            state = State.interestReturns;\n\n            // Log state change.\n            LogCreditStateChanged(state, block.timestamp);\n        }\n    }\n\n    /** @dev Withdraw function.\n      * It can only be executed while contract is in active state.\n      * It is only accessible to the borrower.\n      * It is only accessible if the needed amount is gathered in the contract.\n      * It can only be executed once.\n      * Transfers the gathered amount to the borrower.\n      */\n    function withdraw() public isActive onlyBorrower canWithdraw isNotFraud {\n        // Set the state to repayment so we can avoid reentrancy.\n        state = State.repayment;\n\n        // Log state change.\n        LogCreditStateChanged(state, block.timestamp);\n\n        // Log borrower withdrawal.\n        LogBorrowerWithdrawal(msg.sender, this.balance, block.timestamp);\n\n        // Transfer the gathered amount to the credit borrower.\n        borrower.transfer(this.balance);\n    }\n\n    /** @dev Request interest function.\n      * It can only be executed while contract is in active state.\n      * It is only accessible to lenders.\n      * It is only accessible if lender funded 1 or more wei.\n      * It can only be executed once.\n      * Transfers the lended amount + interest to the lender.\n      */\n    function requestInterest() public isActive onlyLender canAskForInterest {\n\n        // Calculate the amount to be returned to lender.\n//        uint lenderReturnAmount = lendersInvestedAmount[msg.sender].mul(returnAmount.div(lendersCount).div(lendersInvestedAmount[msg.sender]));\n        uint lenderReturnAmount = returnAmount / lendersCount;\n\n        // Assert the contract has enough balance to pay the lender.\n        assert(this.balance >= lenderReturnAmount);\n\n        // Transfer the return amount with interest to the lender.\n        msg.sender.transfer(lenderReturnAmount);\n\n        // Log the transfer to lender.\n        LogLenderWithdrawal(msg.sender, lenderReturnAmount, block.timestamp);\n\n        // Check if the contract balance is drawned.\n        if (this.balance == 0) {\n\n            // Set the active state to false.\n            active = false;\n\n            // Log active state change.\n            LogCreditStateActiveChanged(active, block.timestamp);\n\n            // Set the contract stage to expired e.g. its lifespan is over.\n            state = State.expired;\n\n            // Log state change.\n            LogCreditStateChanged(state, block.timestamp);\n        }\n    }\n\n    /** @dev Function to get the whole credit information.\n      * @return borrower\n      * @return description\n      * @return requestedAmount\n      * @return requestedRepayments\n      * @return remainingRepayments\n      * @return interest\n      * @return returnAmount\n      * @return state\n      * @return active\n      * @return this.balance\n      */\n    function getCreditInfo() public view returns (address, bytes32, uint, uint, uint, uint, uint, uint, State, bool, uint) {\n        return (\n        borrower,\n        description,\n        requestedAmount,\n        requestedRepayments,\n        repaymentInstallment,\n        remainingRepayments,\n        interest,\n        returnAmount,\n        state,\n        active,\n        this.balance\n        );\n    }\n\n    /** @dev Function for revoking the credit.\n      */\n    function revokeVote() public isActive isRevokable onlyLender {\n        // Require only one vote per lender.\n        require(revokeVoters[msg.sender] == false);\n\n        // Increment the revokeVotes.\n        revokeVotes++;\n\n        // Note the lender has voted.\n        revokeVoters[msg.sender] == true;\n\n        // Log lender vote for revoking the credit contract.\n        LogLenderVoteForRevoking(msg.sender, block.timestamp);\n\n        // If the consensus is reached.\n        if (lendersCount == revokeVotes) {\n            // Call internal revoke function.\n            revoke();\n        }\n    }\n\n    /** @dev Revoke internal function.\n      */\n    function revoke() internal {\n        // Change the state to revoked.\n        state = State.revoked;\n\n        // Log credit revoked.\n        LogCreditStateChanged(state, block.timestamp);\n    }\n\n    /** @dev Function for refunding people. */\n    function refund() public isActive onlyLender isRevoked {\n        // assert the contract have enough balance.\n        assert(this.balance >= lendersInvestedAmount[msg.sender]);\n\n        // Transfer the return amount with interest to the lender.\n        msg.sender.transfer(lendersInvestedAmount[msg.sender]);\n\n        // Log the transfer to lender.\n        LogLenderRefunded(msg.sender, lendersInvestedAmount[msg.sender], block.timestamp);\n\n        // Check if the contract balance is drawned.\n        if (this.balance == 0) {\n\n            // Set the active state to false.\n            active = false;\n\n            // Log active status change.\n            LogCreditStateActiveChanged(active, block.timestamp);\n\n            // Set the contract stage to expired e.g. its lifespan is over.\n            state = State.expired;\n\n            // Log state change.\n            LogCreditStateChanged(state, block.timestamp);\n        }\n    }\n\n    /** @dev Function for voting the borrower as fraudster.\n     */\n    function fraudVote() public isActive onlyLender returns (bool) {\n        // A lender could vote only once.\n        require(fraudVoters[msg.sender] == false);\n\n        // Increment fraudVotes count.\n        fraudVotes++;\n\n        // Note the lender has voted.\n        fraudVoters[msg.sender] == true;\n\n        // Log lenders vote for fraud\n        LogLenderVoteForFraud(msg.sender, block.timestamp);\n\n        // Check if consensus is reached.\n        if (lendersCount == fraudVotes) {\n            // Invoke fraud function.\n            return fraud();\n        }\n        return true;\n    }\n\n    /** @dev Fraund function\n      * @return\n      * calls the owner contract and marks the borrower as fraudster.\n      */\n    function fraud() internal returns (bool) {\n        // call the owner address function with param borrower's address\n        bool fraudStatusResult = owner.call(bytes4(keccak256(\"setFraudStatus(address)\")), borrower);\n\n        // Log user marked as fraud.\n        LogBorrowerIsFraud(borrower, fraudStatusResult, block.timestamp);\n\n        return fraudStatusResult;\n    }\n\n    /** @dev Change state function.\n      * @param _state New state.\n      * Only accessible to the owner of the contract.\n      * Changes the state of the contract.\n      */\n    function changeState(State _state) external onlyOwner returns (uint) {\n        state = _state;\n\n        // Log state change.\n        LogCreditStateChanged(state, block.timestamp);\n    }\n\n    /** @dev Toggle active state function.\n      * Only accessible to the owner of the contract.\n      * Toggles the active state of the contract.\n      * @return bool\n      */\n    function toggleActive() external onlyOwner returns (bool) {\n        active = !active;\n\n        // Log active status change.\n        LogCreditStateActiveChanged(active, block.timestamp);\n\n        return active;\n    }\n\n}\n",
  "sourcePath": "/Users/milenradkov/git/softuni/blockchain-dev-camp/p2p-lending/smart-contracts/contracts/Credit.sol",
  "compiler": {
    "name": "solc",
    "version": "0.4.18+commit.9cf6e910.Emscripten.clang"
  },
  "schemaVersion": "1.0.1",
  "updatedAt": "2018-03-10T14:04:35.116Z"
}