{
  "contractName": "Credit",
  "abi": [
    {
      "constant": true,
      "inputs": [],
      "name": "active",
      "outputs": [
        {
          "name": "",
          "type": "bool"
        }
      ],
      "payable": false,
      "stateMutability": "view",
      "type": "function"
    },
    {
      "constant": true,
      "inputs": [],
      "name": "getBalance",
      "outputs": [
        {
          "name": "",
          "type": "uint256"
        }
      ],
      "payable": false,
      "stateMutability": "view",
      "type": "function"
    },
    {
      "constant": true,
      "inputs": [],
      "name": "requestedRepayments",
      "outputs": [
        {
          "name": "",
          "type": "uint256"
        }
      ],
      "payable": false,
      "stateMutability": "view",
      "type": "function"
    },
    {
      "constant": true,
      "inputs": [
        {
          "name": "",
          "type": "address"
        }
      ],
      "name": "lenders",
      "outputs": [
        {
          "name": "",
          "type": "bool"
        }
      ],
      "payable": false,
      "stateMutability": "view",
      "type": "function"
    },
    {
      "constant": false,
      "inputs": [],
      "name": "toggleActive",
      "outputs": [],
      "payable": false,
      "stateMutability": "nonpayable",
      "type": "function"
    },
    {
      "constant": false,
      "inputs": [],
      "name": "withdraw",
      "outputs": [],
      "payable": false,
      "stateMutability": "nonpayable",
      "type": "function"
    },
    {
      "constant": false,
      "inputs": [],
      "name": "repay",
      "outputs": [],
      "payable": true,
      "stateMutability": "payable",
      "type": "function"
    },
    {
      "constant": true,
      "inputs": [],
      "name": "repaymentInstallment",
      "outputs": [
        {
          "name": "",
          "type": "uint256"
        }
      ],
      "payable": false,
      "stateMutability": "view",
      "type": "function"
    },
    {
      "constant": true,
      "inputs": [],
      "name": "description",
      "outputs": [
        {
          "name": "",
          "type": "bytes32"
        }
      ],
      "payable": false,
      "stateMutability": "view",
      "type": "function"
    },
    {
      "constant": true,
      "inputs": [],
      "name": "requestedAmount",
      "outputs": [
        {
          "name": "",
          "type": "uint256"
        }
      ],
      "payable": false,
      "stateMutability": "view",
      "type": "function"
    },
    {
      "constant": true,
      "inputs": [],
      "name": "borrower",
      "outputs": [
        {
          "name": "",
          "type": "address"
        }
      ],
      "payable": false,
      "stateMutability": "view",
      "type": "function"
    },
    {
      "constant": false,
      "inputs": [],
      "name": "destroy",
      "outputs": [],
      "payable": false,
      "stateMutability": "nonpayable",
      "type": "function"
    },
    {
      "constant": true,
      "inputs": [],
      "name": "owner",
      "outputs": [
        {
          "name": "",
          "type": "address"
        }
      ],
      "payable": false,
      "stateMutability": "view",
      "type": "function"
    },
    {
      "constant": true,
      "inputs": [],
      "name": "lastRepaymentDate",
      "outputs": [
        {
          "name": "",
          "type": "uint256"
        }
      ],
      "payable": false,
      "stateMutability": "view",
      "type": "function"
    },
    {
      "constant": false,
      "inputs": [
        {
          "name": "_state",
          "type": "uint8"
        }
      ],
      "name": "changeStage",
      "outputs": [],
      "payable": false,
      "stateMutability": "nonpayable",
      "type": "function"
    },
    {
      "constant": true,
      "inputs": [],
      "name": "requestedDate",
      "outputs": [
        {
          "name": "",
          "type": "uint256"
        }
      ],
      "payable": false,
      "stateMutability": "view",
      "type": "function"
    },
    {
      "constant": true,
      "inputs": [],
      "name": "interest",
      "outputs": [
        {
          "name": "",
          "type": "uint256"
        }
      ],
      "payable": false,
      "stateMutability": "view",
      "type": "function"
    },
    {
      "constant": false,
      "inputs": [],
      "name": "invest",
      "outputs": [],
      "payable": true,
      "stateMutability": "payable",
      "type": "function"
    },
    {
      "constant": true,
      "inputs": [],
      "name": "remainingRepayments",
      "outputs": [
        {
          "name": "",
          "type": "uint256"
        }
      ],
      "payable": false,
      "stateMutability": "view",
      "type": "function"
    },
    {
      "constant": false,
      "inputs": [],
      "name": "requestInterest",
      "outputs": [],
      "payable": false,
      "stateMutability": "nonpayable",
      "type": "function"
    },
    {
      "constant": true,
      "inputs": [],
      "name": "returnAmount",
      "outputs": [
        {
          "name": "",
          "type": "uint256"
        }
      ],
      "payable": false,
      "stateMutability": "view",
      "type": "function"
    },
    {
      "constant": false,
      "inputs": [
        {
          "name": "_recipient",
          "type": "address"
        }
      ],
      "name": "destroyAndSend",
      "outputs": [],
      "payable": false,
      "stateMutability": "nonpayable",
      "type": "function"
    },
    {
      "constant": true,
      "inputs": [],
      "name": "repaidAmount",
      "outputs": [
        {
          "name": "",
          "type": "uint256"
        }
      ],
      "payable": false,
      "stateMutability": "view",
      "type": "function"
    },
    {
      "constant": true,
      "inputs": [
        {
          "name": "",
          "type": "address"
        }
      ],
      "name": "lendersInvestedAmount",
      "outputs": [
        {
          "name": "",
          "type": "uint256"
        }
      ],
      "payable": false,
      "stateMutability": "view",
      "type": "function"
    },
    {
      "inputs": [
        {
          "name": "_requestedAmount",
          "type": "uint256"
        },
        {
          "name": "_requestedRepayments",
          "type": "uint256"
        },
        {
          "name": "_description",
          "type": "bytes32"
        }
      ],
      "payable": false,
      "stateMutability": "nonpayable",
      "type": "constructor"
    },
    {
      "anonymous": false,
      "inputs": [
        {
          "indexed": true,
          "name": "_address",
          "type": "address"
        },
        {
          "indexed": true,
          "name": "timestamp",
          "type": "uint256"
        }
      ],
      "name": "LogCreditInitialized",
      "type": "event"
    },
    {
      "anonymous": false,
      "inputs": [
        {
          "indexed": true,
          "name": "_address",
          "type": "address"
        },
        {
          "indexed": true,
          "name": "_amount",
          "type": "uint256"
        },
        {
          "indexed": true,
          "name": "timestamp",
          "type": "uint256"
        }
      ],
      "name": "LogBorrowerWithdrawal",
      "type": "event"
    },
    {
      "anonymous": false,
      "inputs": [
        {
          "indexed": true,
          "name": "_address",
          "type": "address"
        },
        {
          "indexed": true,
          "name": "_amount",
          "type": "uint256"
        },
        {
          "indexed": true,
          "name": "timestamp",
          "type": "uint256"
        }
      ],
      "name": "LogBorrowerRepaymentInstallment",
      "type": "event"
    },
    {
      "anonymous": false,
      "inputs": [
        {
          "indexed": true,
          "name": "_address",
          "type": "address"
        },
        {
          "indexed": true,
          "name": "_amount",
          "type": "uint256"
        },
        {
          "indexed": true,
          "name": "timestamp",
          "type": "uint256"
        }
      ],
      "name": "LogBorrowerRepaymentFinished",
      "type": "event"
    },
    {
      "anonymous": false,
      "inputs": [
        {
          "indexed": true,
          "name": "_address",
          "type": "address"
        },
        {
          "indexed": true,
          "name": "_amount",
          "type": "uint256"
        },
        {
          "indexed": true,
          "name": "timestamp",
          "type": "uint256"
        }
      ],
      "name": "LogBorrowerChangeReturned",
      "type": "event"
    },
    {
      "anonymous": false,
      "inputs": [
        {
          "indexed": true,
          "name": "_address",
          "type": "address"
        },
        {
          "indexed": true,
          "name": "_amount",
          "type": "uint256"
        },
        {
          "indexed": true,
          "name": "timestamp",
          "type": "uint256"
        }
      ],
      "name": "LogLenderInvestment",
      "type": "event"
    },
    {
      "anonymous": false,
      "inputs": [
        {
          "indexed": true,
          "name": "_address",
          "type": "address"
        },
        {
          "indexed": true,
          "name": "_amount",
          "type": "uint256"
        },
        {
          "indexed": true,
          "name": "timestamp",
          "type": "uint256"
        }
      ],
      "name": "LogLenderWithdrawal",
      "type": "event"
    },
    {
      "anonymous": false,
      "inputs": [
        {
          "indexed": true,
          "name": "_address",
          "type": "address"
        },
        {
          "indexed": true,
          "name": "_amount",
          "type": "uint256"
        },
        {
          "indexed": true,
          "name": "timestamp",
          "type": "uint256"
        }
      ],
      "name": "LogLenderChangeReturned",
      "type": "event"
    },
    {
      "anonymous": false,
      "inputs": [
        {
          "indexed": true,
          "name": "_currentOwner",
          "type": "address"
        },
        {
          "indexed": true,
          "name": "_newOwner",
          "type": "address"
        }
      ],
      "name": "LogOwnershipTransfered",
      "type": "event"
    }
  ],
  "bytecode": "0x60606040526001600c60006101000a81548160ff021916908315150217905550341561002a57600080fd5b60405160608061140583398101604052808051906020019091908051906020019091908051906020019091905050336000806101000a81548173ffffffffffffffffffffffffffffffffffffffff021916908373ffffffffffffffffffffffffffffffffffffffff16021790555032600160006101000a81548173ffffffffffffffffffffffffffffffffffffffff021916908373ffffffffffffffffffffffffffffffffffffffff16021790555061138860058190555082600281905550816006819055508160078190555061011b6005546002546101cb64010000000002611152179091906401000000009004565b6003819055506101456006546003546101e964010000000002611170179091906401000000009004565b60088190555080600b81600019169055504260098190555042600160009054906101000a900473ffffffffffffffffffffffffffffffffffffffff1673ffffffffffffffffffffffffffffffffffffffff167ff9f75c99c0e3522cd19ffc66fd6c94989a3f0821d37d5c5bb176aab904c6335d60405160405180910390a3505050610204565b60008082840190508381101515156101df57fe5b8091505092915050565b60008082848115156101f757fe5b0490508091505092915050565b6111f2806102136000396000f30060606040526004361061013e576000357c0100000000000000000000000000000000000000000000000000000000900463ffffffff16806302fb0c5e1461014357806312065fe014610170578063162fce691461019957806328fd10d7146101c257806329c68dc1146102135780633ccfd60b14610228578063402d88831461023d57806348c21947146102475780637284e4161461027057806378860268146102a15780637df1f1b9146102ca57806383197ef01461031f5780638da5cb5b146103345780639366b60d14610389578063b9172dec146103b2578063b99bea24146103d8578063c392f76614610401578063e8b5e51f1461042a578063e8bb529914610434578063efd475ab1461045d578063f35eeaef14610472578063f5074f411461049b578063f98b8028146104d4578063fbaa78f3146104fd575b600080fd5b341561014e57600080fd5b61015661054a565b604051808215151515815260200191505060405180910390f35b341561017b57600080fd5b61018361055d565b6040518082815260200191505060405180910390f35b34156101a457600080fd5b6101ac61057c565b6040518082815260200191505060405180910390f35b34156101cd57600080fd5b6101f9600480803573ffffffffffffffffffffffffffffffffffffffff16906020019091905050610582565b604051808215151515815260200191505060405180910390f35b341561021e57600080fd5b6102266105a2565b005b341561023357600080fd5b61023b610629565b005b61024561076e565b005b341561025257600080fd5b61025a610982565b6040518082815260200191505060405180910390f35b341561027b57600080fd5b610283610988565b60405180826000191660001916815260200191505060405180910390f35b34156102ac57600080fd5b6102b461098e565b6040518082815260200191505060405180910390f35b34156102d557600080fd5b6102dd610994565b604051808273ffffffffffffffffffffffffffffffffffffffff1673ffffffffffffffffffffffffffffffffffffffff16815260200191505060405180910390f35b341561032a57600080fd5b6103326109ba565b005b341561033f57600080fd5b610347610a4f565b604051808273ffffffffffffffffffffffffffffffffffffffff1673ffffffffffffffffffffffffffffffffffffffff16815260200191505060405180910390f35b341561039457600080fd5b61039c610a74565b6040518082815260200191505060405180910390f35b34156103bd57600080fd5b6103d6600480803560ff16906020019091905050610a7a565b005b34156103e357600080fd5b6103eb610afb565b6040518082815260200191505060405180910390f35b341561040c57600080fd5b610414610b01565b6040518082815260200191505060405180910390f35b610432610b07565b005b341561043f57600080fd5b610447610ddf565b6040518082815260200191505060405180910390f35b341561046857600080fd5b610470610de5565b005b341561047d57600080fd5b6104856110a1565b6040518082815260200191505060405180910390f35b34156104a657600080fd5b6104d2600480803573ffffffffffffffffffffffffffffffffffffffff169060200190919050506110a7565b005b34156104df57600080fd5b6104e761111b565b6040518082815260200191505060405180910390f35b341561050857600080fd5b610534600480803573ffffffffffffffffffffffffffffffffffffffff16906020019091905050611121565b6040518082815260200191505060405180910390f35b600c60009054906101000a900460ff1681565b60003073ffffffffffffffffffffffffffffffffffffffff1631905090565b60065481565b600d6020528060005260406000206000915054906101000a900460ff1681565b6000809054906101000a900473ffffffffffffffffffffffffffffffffffffffff1673ffffffffffffffffffffffffffffffffffffffff163373ffffffffffffffffffffffffffffffffffffffff161415156105fd57600080fd5b600c60009054906101000a900460ff1615600c60006101000a81548160ff021916908315150217905550565b60011515600c60009054906101000a900460ff16151514151561064b57600080fd5b600160009054906101000a900473ffffffffffffffffffffffffffffffffffffffff1673ffffffffffffffffffffffffffffffffffffffff163373ffffffffffffffffffffffffffffffffffffffff161415156106a757600080fd5b6002543073ffffffffffffffffffffffffffffffffffffffff1631101515156106cf57600080fd5b6001600c60016101000a81548160ff021916908360038111156106ee57fe5b0217905550600160009054906101000a900473ffffffffffffffffffffffffffffffffffffffff1673ffffffffffffffffffffffffffffffffffffffff166108fc3073ffffffffffffffffffffffffffffffffffffffff16319081150290604051600060405180830381858888f19350505050151561076c57600080fd5b565b6000600160009054906101000a900473ffffffffffffffffffffffffffffffffffffffff1673ffffffffffffffffffffffffffffffffffffffff163373ffffffffffffffffffffffffffffffffffffffff161415156107cc57600080fd5b600160038111156107d957fe5b600c60019054906101000a900460ff1660038111156107f457fe5b14151561080057600080fd5b600060075411151561081157600080fd5b600854341015151561082257600080fd5b60035460045410151561083157fe5b6007600081548092919060019003919050555042600a81905550600090506008543411156109215761086e6008543461113990919063ffffffff16565b9050610883813461113990919063ffffffff16565b60085414151561088f57fe5b34811115151561089b57fe5b3373ffffffffffffffffffffffffffffffffffffffff166108fc829081150290604051600060405180830381858888f1935050505015156108db57600080fd5b42813373ffffffffffffffffffffffffffffffffffffffff167f5c9874487a2258c6bd6dc39a2cfcf7ea944b50b79d9a7152668779687b2ebd8d60405160405180910390a45b610948610937823461113990919063ffffffff16565b60045461115290919063ffffffff16565b600481905550600354600454141561097f576002600c60016101000a81548160ff0219169083600381111561097957fe5b02179055505b50565b60085481565b600b5481565b60025481565b600160009054906101000a900473ffffffffffffffffffffffffffffffffffffffff1681565b6000809054906101000a900473ffffffffffffffffffffffffffffffffffffffff1673ffffffffffffffffffffffffffffffffffffffff163373ffffffffffffffffffffffffffffffffffffffff16141515610a1557600080fd5b6000809054906101000a900473ffffffffffffffffffffffffffffffffffffffff1673ffffffffffffffffffffffffffffffffffffffff16ff5b6000809054906101000a900473ffffffffffffffffffffffffffffffffffffffff1681565b600a5481565b6000809054906101000a900473ffffffffffffffffffffffffffffffffffffffff1673ffffffffffffffffffffffffffffffffffffffff163373ffffffffffffffffffffffffffffffffffffffff16141515610ad557600080fd5b80600c60016101000a81548160ff02191690836003811115610af357fe5b021790555050565b60095481565b60055481565b6000806003811115610b1557fe5b600c60019054906101000a900460ff166003811115610b3057fe5b141515610b3c57600080fd5b600090506002543073ffffffffffffffffffffffffffffffffffffffff1631101515610c8657610b8e6002543073ffffffffffffffffffffffffffffffffffffffff163161113990919063ffffffff16565b9050610bba813073ffffffffffffffffffffffffffffffffffffffff163161113990919063ffffffff16565b600254141515610bc657fe5b348111151515610bd257fe5b6000811115610c61573373ffffffffffffffffffffffffffffffffffffffff166108fc829081150290604051600060405180830381858888f193505050501515610c1b57600080fd5b42813373ffffffffffffffffffffffffffffffffffffffff167f566803f6e271b911c84f87631bcd310d6a6510bf8882577a96fc76975703e43160405160405180910390a45b6001600c60016101000a81548160ff02191690836003811115610c8057fe5b02179055505b6001600d60003373ffffffffffffffffffffffffffffffffffffffff1673ffffffffffffffffffffffffffffffffffffffff16815260200190815260200160002060006101000a81548160ff021916908315150217905550610d42610cf4823461113990919063ffffffff16565b600e60003373ffffffffffffffffffffffffffffffffffffffff1673ffffffffffffffffffffffffffffffffffffffff1681526020019081526020016000205461115290919063ffffffff16565b600e60003373ffffffffffffffffffffffffffffffffffffffff1673ffffffffffffffffffffffffffffffffffffffff1681526020019081526020016000208190555042610d99823461113990919063ffffffff16565b3373ffffffffffffffffffffffffffffffffffffffff167f1b0969ce7f5b05c5e0969329a05cdbd7e2e2f6cee33ba26fd6e6bbcff82312cd60405160405180910390a450565b60075481565b60008060011515600c60009054906101000a900460ff161515141515610e0a57600080fd5b60011515600d60003373ffffffffffffffffffffffffffffffffffffffff1673ffffffffffffffffffffffffffffffffffffffff16815260200190815260200160002060009054906101000a900460ff161515141515610e6957600080fd5b60026003811115610e7657fe5b600c60019054906101000a900460ff166003811115610e9157fe5b141515610e9d57600080fd5b6000600e60003373ffffffffffffffffffffffffffffffffffffffff1673ffffffffffffffffffffffffffffffffffffffff16815260200190815260200160002054111515610eeb57600080fd5b610f3f600e60003373ffffffffffffffffffffffffffffffffffffffff1673ffffffffffffffffffffffffffffffffffffffff1681526020019081526020016000205460035461117090919063ffffffff16565b9150610f9382600e60003373ffffffffffffffffffffffffffffffffffffffff1673ffffffffffffffffffffffffffffffffffffffff1681526020019081526020016000205461118b90919063ffffffff16565b9050803073ffffffffffffffffffffffffffffffffffffffff163110151515610fb857fe5b3373ffffffffffffffffffffffffffffffffffffffff166108fc829081150290604051600060405180830381858888f193505050501515610ff857600080fd5b42813373ffffffffffffffffffffffffffffffffffffffff167f052f6685df2f773f854b17db1d82e2352e222010daaf8175761f02ef8782c40360405160405180910390a460003073ffffffffffffffffffffffffffffffffffffffff1631141561109d576000600c60006101000a81548160ff0219169083151502179055506003600c60016101000a81548160ff0219169083600381111561109757fe5b02179055505b5050565b60035481565b6000809054906101000a900473ffffffffffffffffffffffffffffffffffffffff1673ffffffffffffffffffffffffffffffffffffffff163373ffffffffffffffffffffffffffffffffffffffff1614151561110257600080fd5b8073ffffffffffffffffffffffffffffffffffffffff16ff5b60045481565b600e6020528060005260406000206000915090505481565b600082821115151561114757fe5b818303905092915050565b600080828401905083811015151561116657fe5b8091505092915050565b600080828481151561117e57fe5b0490508091505092915050565b60008060008414156111a057600091506111bf565b82840290508284828115156111b157fe5b041415156111bb57fe5b8091505b50929150505600a165627a7a72305820a37b484a0b75df79f657239b7d12fa8682ed76fce2aebc98109ead78dad15c6a0029",
  "source": "pragma solidity ^0.4.18;\n\nimport './common/SafeMath.sol';\nimport './common/Destructible.sol';\n\n/** @title Credit contract.\n  * Inherits the Ownable and Destructible contracts.\n  */\ncontract Credit is Destructible {\n    /** @dev Usings */\n    // Using SafeMath for our calculations with uints.\n    using SafeMath for uint;\n\n    /** @dev State variables */\n    // Borrower is the person who generated the credit contract.\n    address public borrower;\n\n    // Amount requested to be funded (in wei).\n    uint public requestedAmount;\n\n    // Amount that will be returned by the borrower (including the interest).\n    uint public returnAmount;\n\n    // Currently repaid amount.\n    uint public repaidAmount;\n\n    // Credit interest.\n    uint public interest;\n\n    // Requested number of repayment installments.\n    uint public requestedRepayments;\n\n    // Remaining repayment installments.\n    uint public remainingRepayments;\n\n    // The value of the repayment installment.\n    uint public repaymentInstallment;\n    \n    // The timestamp of credit creation.\n    uint public requestedDate;\n\n    // The timestamp of last repayment date.\n    uint public lastRepaymentDate;\n    \n    // Description of the credit.\n    bytes32 public description;\n    \n    // Active state of the credit.\n    bool public active = true;\n\n    /** Stages that every credit contract gets trough.\n      *   investment - During this state only investments are allowed.\n      *   repayment - During this stage only repayments are allowed.\n      *   interestReturns - This stage gives investors opportunity to requeste their returns.\n      *   expired - This is the stage when the contract is finished its purpose.\n    */\n    enum State { investment, repayment, interestReturns, expired }\n    State state;\n\n    // Storing the lenders for this credit.\n    mapping(address => bool) public lenders;\n\n    // Storing the invested amount by each lender.\n    mapping(address => uint) public lendersInvestedAmount;\n\n    /** @dev Events\n    *\n    */\n    event LogCreditInitialized(address indexed _address, uint indexed timestamp);\n    event LogBorrowerWithdrawal(address indexed _address, uint indexed _amount, uint indexed timestamp);    \n    event LogBorrowerRepaymentInstallment(address indexed _address, uint indexed _amount, uint indexed timestamp);    \n    event LogBorrowerRepaymentFinished(address indexed _address, uint indexed _amount, uint indexed timestamp);    \n    event LogBorrowerChangeReturned(address indexed _address, uint indexed _amount, uint indexed timestamp);    \n    event LogLenderInvestment(address indexed _address, uint indexed _amount, uint indexed timestamp);\n    event LogLenderWithdrawal(address indexed _address, uint indexed _amount, uint indexed timestamp);\n    event LogLenderChangeReturned(address indexed _address, uint indexed _amount, uint indexed timestamp);\n\n    /** @dev Modifiers\n    *\n    */\n    modifier isActive() {\n        require(active == true);\n        _;\n    }\n    \n    modifier onlyBorrower() {\n        require(msg.sender == borrower);\n        _;\n    }\n    \n    modifier onlyLender() {\n        require(lenders[msg.sender] == true);\n        _;\n    }\n    \n    modifier canAskForInterest() {\n        require(state == State.interestReturns);\n        require(lendersInvestedAmount[msg.sender] > 0);\n        _;\n    }\n    \n    modifier canInvest() {\n        require(state == State.investment);\n        _;\n    }\n    \n    modifier canRepay() {\n        require(state == State.repayment);\n        _;\n    }\n    \n    modifier canWithdraw() {\n        require(this.balance >= requestedAmount);\n        _;\n    }\n  \n    /** @dev Constructor.\n      * @param _requestedAmount Requested credit amount (in wei).\n      * @param _requestedRepayments Requested number of repayments.\n      * @param _description Credit description.\n      */\n    function Credit(uint _requestedAmount, uint _requestedRepayments, bytes32 _description) public {\n        \n        /** Set the borrower of the contract to the tx.origin\n          * We are using tx.origin, because the contract is going to be published\n          * by the main contract and msg.sender will break our logic.\n        */\n        borrower = tx.origin;\n\n        // Set the interest for the credit.\n        interest = 5000;\n\n        // Set the requested amount.\n        requestedAmount = _requestedAmount;\n\n        // Set the requested repayments.\n        requestedRepayments = _requestedRepayments;\n\n        /** Set the remaining repayments.\n          * Initially this is equal to the requested repayments.        \n          */\n        remainingRepayments = _requestedRepayments;\n\n        /** Calculate the amount to be returned by the borrower.\n          * At this point this is the addition of the requested amount and the interest.\n          */\n        returnAmount = requestedAmount.add(interest);\n\n        /** Calculating the repayment installment.\n          * We divide the amount to be returned by the requested repayments count to get it.\n          */\n        repaymentInstallment = returnAmount.div(requestedRepayments);\n\n        // Set the credit description.\n        description = _description;\n\n        // Set the initialization date.\n        requestedDate = now;\n\n        // Log credit initialization.\n        LogCreditInitialized(borrower, now);\n    }\n    \n    /** @dev Get current balance.\n      * @return this.balance.\n      */\n    function getBalance() public view returns(uint256) {\n        return this.balance;\n    }\n    \n    /** @dev Invest function.\n      * Provides functionality for person to invest in someone's credit,\n      * incentivised by the return of interest.\n      */  \n    function invest() public canInvest payable {\n        // Initialize an memory variable for the extra money that may have been sent.\n        uint extraMoney = 0;\n\n        // Check if contract balance is reached the requested amount.\n        if (this.balance >= requestedAmount) {\n            \n            // Calculate the extra money that may have been sent.\n            extraMoney = this.balance.sub(requestedAmount);\n\n            // Assert the calculations\n            assert(requestedAmount == this.balance.sub(extraMoney));\n\n            // Assert for possible underflow / overflow\n            assert(extraMoney <= msg.value);\n\n            // Check if extra money is greater than 0 wei.\n            if (extraMoney > 0) {\n                // Return the extra money to the sender.\n                msg.sender.transfer(extraMoney);\n\n                // Log change returned.\n                LogLenderChangeReturned(msg.sender, extraMoney, now);\n            }\n            \n            // Set the contract state to repayment.\n            state = State.repayment;\n        }\n        \n        /** Add the investor to the lenders mapping.\n          * So that we know he invested in this contract.\n          */\n        lenders[msg.sender] = true;\n\n        // Add the amount invested to the amount mapping.\n        lendersInvestedAmount[msg.sender] = lendersInvestedAmount[msg.sender].add(msg.value.sub(extraMoney));\n\n        // Log lender invested amount.\n        LogLenderInvestment(msg.sender, msg.value.sub(extraMoney), now);\n    }\n    \n    /** @dev Repayment function.\n      * Allows borrower to make repayment installments.\n      */\n    function repay() public onlyBorrower canRepay payable {\n        // The remaining repayments should be greater than 0 to continue.\n        require(remainingRepayments > 0);\n        // The value sent should be greater than the repayment installment.\n        require(msg.value >= repaymentInstallment);\n        \n        /** Assert that the amount to be returned is greater\n          * than the sum of repayments made until now. \n          * Otherwise the credit is already repaid.\n          */\n        assert(repaidAmount < returnAmount);\n       \n        // Decrement the remaining repayments.\n        remainingRepayments--;\n        \n        // Update last repayment date.\n        lastRepaymentDate = now;\n\n        // Initialize an memory variable for the extra money that may have been sent.\n        uint extraMoney = 0;\n\n        /** Check if the value (in wei) that is being sent is greather than the repayment installment.\n          * In this case we should return the change to the msg.sender.\n          */        \n        if (msg.value > repaymentInstallment) {\n\n            // Calculate the extra money being sent in the transaction.\n            extraMoney = msg.value.sub(repaymentInstallment);\n\n            // Assert the calculations.\n            assert(repaymentInstallment == msg.value.sub(extraMoney));\n\n            // Assert for underflow.\n            assert(extraMoney <= msg.value);\n\n            // Return the change/extra money to the msg.sender.\n            msg.sender.transfer(extraMoney);\n\n            // Log the return of the extra money.\n            LogBorrowerChangeReturned(msg.sender, extraMoney, now);\n        }\n        \n        // Add the repayment installment amount to the total repaid amount.\n        repaidAmount = repaidAmount.add(msg.value.sub(extraMoney));\n\n        // Check the repaid amount reached the amount to be returned.\n        if (repaidAmount == returnAmount) {\n            // Set the credit state to \"returning interests\".\n            state = State.interestReturns;\n        }\n    }\n    \n    /** @dev Withdraw function.\n      * It can only be executed while contract is in active state.\n      * It is only accessible to the borrower.\n      * It is only accessible if the needed amount is gathered in the contract.\n      * It can only be executed once.\n      * Transfers the gathered amount to the borrower.\n      */ \n    function withdraw() public isActive onlyBorrower canWithdraw {\n        // Set the state to repayment so we can avoid reentrancy.\n        state = State.repayment;\n\n        // Transfer the gathered amount to the credit borrower.\n        borrower.transfer(this.balance);\n    }\n    \n    /** @dev Request interest function.\n      * It can only be executed while contract is in active state.\n      * It is only accessible to lenders.\n      * It is only accessible if lender funded 1 or more wei.\n      * It can only be executed once.\n      * Transfers the lended amount + interest to the lender.\n      */ \n    function requestInterest() public isActive onlyLender canAskForInterest {\n\n        // Calculate the interest.\n        uint returnInterest = returnAmount.div(lendersInvestedAmount[msg.sender]);\n\n        // Calculate the amount to be returned to lender.\n        uint lenderReturnAmount = lendersInvestedAmount[msg.sender].mul(returnInterest);\n\n        // Assert the contract has enough balance to pay the lender. \n        assert(this.balance >= lenderReturnAmount);\n\n        // Transfer the return amount with interest to the lender.\n        msg.sender.transfer(lenderReturnAmount);\n\n        // Log the transfer to lender.\n        LogLenderWithdrawal(msg.sender, lenderReturnAmount, now);\n\n        // Check if the contract balance is drawned.\n        if (this.balance == 0) {\n\n            // Set the active state to false.\n            active = false;\n\n            // Set the contract stage to expired e.g. its lifespan is over.\n            state = State.expired;\n        }\n    }\n\n    /** @dev Change state function.\n      * @param _state New state.\n      * Only accessible to the owner of the contract.\n      * Changes the state of the contract.\n      */\n    function changeStage(State _state) public onlyOwner {\n        state = _state;\n    }\n\n    /** @dev Toggle active state function.\n      * Only accessible to the owner of the contract.\n      * Toggles the active state of the contract.\n      */\n    function toggleActive() public onlyOwner {\n        active = !active;\n    }\n\n}",
  "sourcePath": "/Users/milenradkov/git/softuni/blockchain-dev-camp/p2p-lending/smart-contracts/contracts/Credit.sol",
  "compiler": {
    "name": "solc",
    "version": "0.4.18+commit.9cf6e910.Emscripten.clang"
  },
  "schemaVersion": "1.0.1",
  "updatedAt": "2018-03-08T09:01:50.969Z"
}