{
  "contractName": "PeerToPeerLending",
  "abi": [
    {
      "constant": true,
      "inputs": [
        {
          "name": "",
          "type": "uint256"
        }
      ],
      "name": "credits",
      "outputs": [
        {
          "name": "",
          "type": "address"
        }
      ],
      "payable": false,
      "stateMutability": "view",
      "type": "function"
    },
    {
      "constant": true,
      "inputs": [],
      "name": "getUserCredits",
      "outputs": [
        {
          "name": "",
          "type": "address[]"
        }
      ],
      "payable": false,
      "stateMutability": "view",
      "type": "function"
    },
    {
      "constant": false,
      "inputs": [
        {
          "name": "_credit",
          "type": "address"
        }
      ],
      "name": "changeCreditState",
      "outputs": [],
      "payable": false,
      "stateMutability": "nonpayable",
      "type": "function"
    },
    {
      "constant": true,
      "inputs": [],
      "name": "getCredits",
      "outputs": [
        {
          "name": "",
          "type": "address[]"
        }
      ],
      "payable": false,
      "stateMutability": "view",
      "type": "function"
    },
    {
      "constant": false,
      "inputs": [],
      "name": "destroy",
      "outputs": [],
      "payable": false,
      "stateMutability": "nonpayable",
      "type": "function"
    },
    {
      "constant": true,
      "inputs": [],
      "name": "owner",
      "outputs": [
        {
          "name": "",
          "type": "address"
        }
      ],
      "payable": false,
      "stateMutability": "view",
      "type": "function"
    },
    {
      "constant": true,
      "inputs": [
        {
          "name": "",
          "type": "address"
        }
      ],
      "name": "users",
      "outputs": [
        {
          "name": "credited",
          "type": "bool"
        },
        {
          "name": "activeCredit",
          "type": "address"
        },
        {
          "name": "fraudStatus",
          "type": "bool"
        }
      ],
      "payable": false,
      "stateMutability": "view",
      "type": "function"
    },
    {
      "constant": false,
      "inputs": [
        {
          "name": "_borrower",
          "type": "address"
        }
      ],
      "name": "setFraudStatus",
      "outputs": [
        {
          "name": "",
          "type": "bool"
        }
      ],
      "payable": false,
      "stateMutability": "nonpayable",
      "type": "function"
    },
    {
      "constant": false,
      "inputs": [
        {
          "name": "requestedAmount",
          "type": "uint256"
        },
        {
          "name": "repaymentsCount",
          "type": "uint256"
        },
        {
          "name": "interest",
          "type": "uint256"
        },
        {
          "name": "creditDescription",
          "type": "bytes32"
        }
      ],
      "name": "applyForCredit",
      "outputs": [
        {
          "name": "_credit",
          "type": "address"
        }
      ],
      "payable": false,
      "stateMutability": "nonpayable",
      "type": "function"
    },
    {
      "constant": false,
      "inputs": [
        {
          "name": "_recipient",
          "type": "address"
        }
      ],
      "name": "destroyAndSend",
      "outputs": [],
      "payable": false,
      "stateMutability": "nonpayable",
      "type": "function"
    },
    {
      "constant": false,
      "inputs": [
        {
          "name": "_credit",
          "type": "address"
        },
        {
          "name": "state",
          "type": "uint8"
        }
      ],
      "name": "changeCreditState",
      "outputs": [],
      "payable": false,
      "stateMutability": "nonpayable",
      "type": "function"
    },
    {
      "inputs": [],
      "payable": false,
      "stateMutability": "nonpayable",
      "type": "constructor"
    },
    {
      "anonymous": false,
      "inputs": [
        {
          "indexed": true,
          "name": "_address",
          "type": "address"
        },
        {
          "indexed": true,
          "name": "_borrower",
          "type": "address"
        },
        {
          "indexed": true,
          "name": "timestamp",
          "type": "uint256"
        }
      ],
      "name": "LogCreditCreated",
      "type": "event"
    },
    {
      "anonymous": false,
      "inputs": [
        {
          "indexed": true,
          "name": "_address",
          "type": "address"
        },
        {
          "indexed": true,
          "name": "state",
          "type": "uint8"
        },
        {
          "indexed": true,
          "name": "timestamp",
          "type": "uint256"
        }
      ],
      "name": "LogCreditStateChanged",
      "type": "event"
    },
    {
      "anonymous": false,
      "inputs": [
        {
          "indexed": true,
          "name": "_address",
          "type": "address"
        },
        {
          "indexed": true,
          "name": "active",
          "type": "bool"
        },
        {
          "indexed": true,
          "name": "timestamp",
          "type": "uint256"
        }
      ],
      "name": "LogCreditActiveChanged",
      "type": "event"
    },
    {
      "anonymous": false,
      "inputs": [
        {
          "indexed": true,
          "name": "_address",
          "type": "address"
        },
        {
          "indexed": false,
          "name": "fraudStatus",
          "type": "bool"
        },
        {
          "indexed": false,
          "name": "timestamp",
          "type": "uint256"
        }
      ],
      "name": "LogUserSetFraud",
      "type": "event"
    },
    {
      "anonymous": false,
      "inputs": [
        {
          "indexed": true,
          "name": "_currentOwner",
          "type": "address"
        },
        {
          "indexed": true,
          "name": "_newOwner",
          "type": "address"
        }
      ],
      "name": "LogOwnershipTransfered",
      "type": "event"
    }
  ],
  "bytecode": "0x6060604052341561000f57600080fd5b336000806101000a81548173ffffffffffffffffffffffffffffffffffffffff021916908373ffffffffffffffffffffffffffffffffffffffff160217905550612dbd8061005e6000396000f3006060604052600436106100af576000357c0100000000000000000000000000000000000000000000000000000000900463ffffffff168063036a1c22146100b45780632092cb331461011757806359658c4814610181578063823a71af146101ba57806383197ef0146102245780638da5cb5b14610239578063a87430ba1461028e578063bb9e42471461031d578063ebb5d8ed1461036e578063f5074f41146103f0578063fa838e5414610429575b600080fd5b34156100bf57600080fd5b6100d5600480803590602001909190505061046e565b604051808273ffffffffffffffffffffffffffffffffffffffff1673ffffffffffffffffffffffffffffffffffffffff16815260200191505060405180910390f35b341561012257600080fd5b61012a6104ad565b6040518080602001828103825283818151815260200191508051906020019060200280838360005b8381101561016d578082015181840152602081019050610152565b505050509050019250505060405180910390f35b341561018c57600080fd5b6101b8600480803573ffffffffffffffffffffffffffffffffffffffff16906020019091905050610581565b005b34156101c557600080fd5b6101cd6106b7565b6040518080602001828103825283818151815260200191508051906020019060200280838360005b838110156102105780820151818401526020810190506101f5565b505050509050019250505060405180910390f35b341561022f57600080fd5b61023761074b565b005b341561024457600080fd5b61024c6107e0565b604051808273ffffffffffffffffffffffffffffffffffffffff1673ffffffffffffffffffffffffffffffffffffffff16815260200191505060405180910390f35b341561029957600080fd5b6102c5600480803573ffffffffffffffffffffffffffffffffffffffff16906020019091905050610805565b60405180841515151581526020018373ffffffffffffffffffffffffffffffffffffffff1673ffffffffffffffffffffffffffffffffffffffff16815260200182151515158152602001935050505060405180910390f35b341561032857600080fd5b610354600480803573ffffffffffffffffffffffffffffffffffffffff16906020019091905050610869565b604051808215151515815260200191505060405180910390f35b341561037957600080fd5b6103ae6004808035906020019091908035906020019091908035906020019091908035600019169060200190919050506109c5565b604051808273ffffffffffffffffffffffffffffffffffffffff1673ffffffffffffffffffffffffffffffffffffffff16815260200191505060405180910390f35b34156103fb57600080fd5b610427600480803573ffffffffffffffffffffffffffffffffffffffff16906020019091905050610da3565b005b341561043457600080fd5b61046c600480803573ffffffffffffffffffffffffffffffffffffffff1690602001909190803560ff16906020019091905050610e17565b005b60028181548110151561047d57fe5b90600052602060002090016000915054906101000a900473ffffffffffffffffffffffffffffffffffffffff1681565b6104b5610f6d565b600160003373ffffffffffffffffffffffffffffffffffffffff1673ffffffffffffffffffffffffffffffffffffffff16815260200190815260200160002060010180548060200260200160405190810160405280929190818152602001828054801561057757602002820191906000526020600020905b8160009054906101000a900473ffffffffffffffffffffffffffffffffffffffff1673ffffffffffffffffffffffffffffffffffffffff168152602001906001019080831161052d575b5050505050905090565b6000806000809054906101000a900473ffffffffffffffffffffffffffffffffffffffff1673ffffffffffffffffffffffffffffffffffffffff163373ffffffffffffffffffffffffffffffffffffffff161415156105df57600080fd5b8291508173ffffffffffffffffffffffffffffffffffffffff166329c68dc16000604051602001526040518163ffffffff167c0100000000000000000000000000000000000000000000000000000000028152600401602060405180830381600087803b151561064e57600080fd5b6102c65a03f1151561065f57600080fd5b505050604051805190509050428115158373ffffffffffffffffffffffffffffffffffffffff167f25270acf0eab637903a9cd906e32d2ac17ce44db6c743ba5812f2924e84ff8d660405160405180910390a4505050565b6106bf610f6d565b600280548060200260200160405190810160405280929190818152602001828054801561074157602002820191906000526020600020905b8160009054906101000a900473ffffffffffffffffffffffffffffffffffffffff1673ffffffffffffffffffffffffffffffffffffffff16815260200190600101908083116106f7575b5050505050905090565b6000809054906101000a900473ffffffffffffffffffffffffffffffffffffffff1673ffffffffffffffffffffffffffffffffffffffff163373ffffffffffffffffffffffffffffffffffffffff161415156107a657600080fd5b6000809054906101000a900473ffffffffffffffffffffffffffffffffffffffff1673ffffffffffffffffffffffffffffffffffffffff16ff5b6000809054906101000a900473ffffffffffffffffffffffffffffffffffffffff1681565b60016020528060005260406000206000915090508060000160009054906101000a900460ff16908060000160019054906101000a900473ffffffffffffffffffffffffffffffffffffffff16908060000160159054906101000a900460ff16905083565b600060018060008473ffffffffffffffffffffffffffffffffffffffff1673ffffffffffffffffffffffffffffffffffffffff16815260200190815260200160002060000160156101000a81548160ff0219169083151502179055508173ffffffffffffffffffffffffffffffffffffffff167fbafb199a9909a7be73ceeaf6193dc9ea119ef469120d998d5f550140c0b13b54600160008573ffffffffffffffffffffffffffffffffffffffff1673ffffffffffffffffffffffffffffffffffffffff16815260200190815260200160002060000160159054906101000a900460ff164260405180831515151581526020018281526020019250505060405180910390a2600160008373ffffffffffffffffffffffffffffffffffffffff1673ffffffffffffffffffffffffffffffffffffffff16815260200190815260200160002060000160159054906101000a900460ff169050919050565b60008060001515600160003373ffffffffffffffffffffffffffffffffffffffff1673ffffffffffffffffffffffffffffffffffffffff16815260200190815260200160002060000160009054906101000a900460ff161515141515610a2a57600080fd5b60001515600160003373ffffffffffffffffffffffffffffffffffffffff1673ffffffffffffffffffffffffffffffffffffffff16815260200190815260200160002060000160159054906101000a900460ff161515141515610a8c57600080fd5b6000600160003373ffffffffffffffffffffffffffffffffffffffff1673ffffffffffffffffffffffffffffffffffffffff16815260200190815260200160002060000160019054906101000a900473ffffffffffffffffffffffffffffffffffffffff1673ffffffffffffffffffffffffffffffffffffffff16141515610b1057fe5b60018060003373ffffffffffffffffffffffffffffffffffffffff1673ffffffffffffffffffffffffffffffffffffffff16815260200190815260200160002060000160006101000a81548160ff02191690831515021790555085858585610b76610f81565b808581526020018481526020018381526020018260001916600019168152602001945050505050604051809103906000f0801515610bb357600080fd5b905080600160003373ffffffffffffffffffffffffffffffffffffffff1673ffffffffffffffffffffffffffffffffffffffff16815260200190815260200160002060000160016101000a81548173ffffffffffffffffffffffffffffffffffffffff021916908373ffffffffffffffffffffffffffffffffffffffff16021790555060028054806001018281610c4a9190610f91565b9160005260206000209001600083909190916101000a81548173ffffffffffffffffffffffffffffffffffffffff021916908373ffffffffffffffffffffffffffffffffffffffff16021790555050600160003373ffffffffffffffffffffffffffffffffffffffff1673ffffffffffffffffffffffffffffffffffffffff1681526020019081526020016000206001018054806001018281610ced9190610f91565b9160005260206000209001600083909190916101000a81548173ffffffffffffffffffffffffffffffffffffffff021916908373ffffffffffffffffffffffffffffffffffffffff16021790555050423373ffffffffffffffffffffffffffffffffffffffff168273ffffffffffffffffffffffffffffffffffffffff167fa0c75b76492543c8eafdc7e35272287bd6f229dcf0f6c22429343044718c510860405160405180910390a480915050949350505050565b6000809054906101000a900473ffffffffffffffffffffffffffffffffffffffff1673ffffffffffffffffffffffffffffffffffffffff163373ffffffffffffffffffffffffffffffffffffffff16141515610dfe57600080fd5b8073ffffffffffffffffffffffffffffffffffffffff16ff5b60008060009054906101000a900473ffffffffffffffffffffffffffffffffffffffff1673ffffffffffffffffffffffffffffffffffffffff163373ffffffffffffffffffffffffffffffffffffffff16141515610e7457600080fd5b8290508073ffffffffffffffffffffffffffffffffffffffff1663268f1153836000604051602001526040518263ffffffff167c010000000000000000000000000000000000000000000000000000000002815260040180826005811115610ed857fe5b60ff168152602001915050602060405180830381600087803b1515610efc57600080fd5b6102c65a03f11515610f0d57600080fd5b505050604051805190505042826005811115610f2557fe5b8273ffffffffffffffffffffffffffffffffffffffff167f9ae5127f6d87e374b5901ce23a9467e504811c54c03dda8741ad44a35a36146660405160405180910390a4505050565b602060405190810160405280600081525090565b604051611daf80610fe383390190565b815481835581811511610fb857818360005260206000209182019101610fb79190610fbd565b5b505050565b610fdf91905b80821115610fdb576000816000905550600101610fc3565b5090565b90560060606040526001600c60006101000a81548160ff0219169083151502179055506000600f55600060105560014201601255600060135534156200004157600080fd5b60405160808062001daf83398101604052808051906020019091908051906020019091908051906020019091908051906020019091905050336000806101000a81548173ffffffffffffffffffffffffffffffffffffffff021916908373ffffffffffffffffffffffffffffffffffffffff16021790555032600160006101000a81548173ffffffffffffffffffffffffffffffffffffffff021916908373ffffffffffffffffffffffffffffffffffffffff160217905550816005819055508360028190555082600681905550826007819055506200013d600554600254620001f264010000000002620018ff179091906401000000009004565b6003819055506200016a600654600354620002116401000000000262001b2b179091906401000000009004565b60088190555080600b81600019169055504260098190555042600160009054906101000a900473ffffffffffffffffffffffffffffffffffffffff1673ffffffffffffffffffffffffffffffffffffffff167ff9f75c99c0e3522cd19ffc66fd6c94989a3f0821d37d5c5bb176aab904c6335d60405160405180910390a3505050506200022d565b60008082840190508381101515156200020757fe5b8091505092915050565b60008082848115156200022057fe5b0490508091505092915050565b611b72806200023d6000396000f3006060604052600436106100db576000357c0100000000000000000000000000000000000000000000000000000000900463ffffffff16806312065fe0146100e0578063268f11531461010957806328fd10d71461014357806329c68dc1146101945780633ccfd60b146101c1578063402d8883146101d657806343c14b22146101e0578063590e1ae3146101f557806383197ef01461020a5780638da5cb5b1461021f578063d85da7b614610274578063e8b5e51f146102a1578063efd475ab146102ab578063f06817cf146102c0578063f5074f4114610375575b600080fd5b34156100eb57600080fd5b6100f36103ae565b6040518082815260200191505060405180910390f35b341561011457600080fd5b61012d600480803560ff169060200190919050506103cd565b6040518082815260200191505060405180910390f35b341561014e57600080fd5b61017a600480803573ffffffffffffffffffffffffffffffffffffffff1690602001909190505061049a565b604051808215151515815260200191505060405180910390f35b341561019f57600080fd5b6101a76104ba565b604051808215151515815260200191505060405180910390f35b34156101cc57600080fd5b6101d4610595565b005b6101de6107b2565b005b34156101eb57600080fd5b6101f3610aa9565b005b341561020057600080fd5b610208610c8b565b005b341561021557600080fd5b61021d610f8e565b005b341561022a57600080fd5b610232611023565b604051808273ffffffffffffffffffffffffffffffffffffffff1673ffffffffffffffffffffffffffffffffffffffff16815260200191505060405180910390f35b341561027f57600080fd5b610287611048565b604051808215151515815260200191505060405180910390f35b6102a96111f3565b005b34156102b657600080fd5b6102be611525565b005b34156102cb57600080fd5b6102d36117ce565b604051808c73ffffffffffffffffffffffffffffffffffffffff1673ffffffffffffffffffffffffffffffffffffffff1681526020018b600019166000191681526020018a815260200189815260200188815260200187815260200186815260200185815260200184600581111561034757fe5b60ff168152602001831515151581526020018281526020019b50505050505050505050505060405180910390f35b341561038057600080fd5b6103ac600480803573ffffffffffffffffffffffffffffffffffffffff16906020019091905050611872565b005b60003073ffffffffffffffffffffffffffffffffffffffff1631905090565b60008060009054906101000a900473ffffffffffffffffffffffffffffffffffffffff1673ffffffffffffffffffffffffffffffffffffffff163373ffffffffffffffffffffffffffffffffffffffff1614151561042a57600080fd5b81600c60016101000a81548160ff0219169083600581111561044857fe5b021790555042600c60019054906101000a900460ff16600581111561046957fe5b7faaae373901e745122c2e0925ad006227969c6cd190b7d5ea2fb7fdbd1d955b3560405160405180910390a3919050565b600d6020528060005260406000206000915054906101000a900460ff1681565b60008060009054906101000a900473ffffffffffffffffffffffffffffffffffffffff1673ffffffffffffffffffffffffffffffffffffffff163373ffffffffffffffffffffffffffffffffffffffff1614151561051757600080fd5b600c60009054906101000a900460ff1615600c60006101000a81548160ff02191690831515021790555042600c60009054906101000a900460ff1615157f160914ea27c60aa29a5f3a69d74e6069869de36e38939de1e0a66b921d8623d260405160405180910390a3600c60009054906101000a900460ff16905090565b60011515600c60009054906101000a900460ff1615151415156105b757600080fd5b600160009054906101000a900473ffffffffffffffffffffffffffffffffffffffff1673ffffffffffffffffffffffffffffffffffffffff163373ffffffffffffffffffffffffffffffffffffffff1614151561061357600080fd5b6002543073ffffffffffffffffffffffffffffffffffffffff16311015151561063b57600080fd5b60058081111561064757fe5b600c60019054906101000a900460ff16600581111561066257fe5b1415151561066f57600080fd5b6001600c60016101000a81548160ff0219169083600581111561068e57fe5b021790555042600c60019054906101000a900460ff1660058111156106af57fe5b7faaae373901e745122c2e0925ad006227969c6cd190b7d5ea2fb7fdbd1d955b3560405160405180910390a3423073ffffffffffffffffffffffffffffffffffffffff16313373ffffffffffffffffffffffffffffffffffffffff167f20734f14d107b526674905e470e35d0a474f9fb996a7bdb034c839c8894524e660405160405180910390a4600160009054906101000a900473ffffffffffffffffffffffffffffffffffffffff1673ffffffffffffffffffffffffffffffffffffffff166108fc3073ffffffffffffffffffffffffffffffffffffffff16319081150290604051600060405180830381858888f1935050505015156107b057600080fd5b565b6000600160009054906101000a900473ffffffffffffffffffffffffffffffffffffffff1673ffffffffffffffffffffffffffffffffffffffff163373ffffffffffffffffffffffffffffffffffffffff1614151561081057600080fd5b6001600581111561081d57fe5b600c60019054906101000a900460ff16600581111561083857fe5b14151561084457600080fd5b600060075411151561085557600080fd5b600854341015151561086657600080fd5b60035460045410151561087557fe5b6007600081548092919060019003919050555042600a8190555060009050600854341115610965576108b2600854346118e690919063ffffffff16565b90506108c781346118e690919063ffffffff16565b6008541415156108d357fe5b3481111515156108df57fe5b3373ffffffffffffffffffffffffffffffffffffffff166108fc829081150290604051600060405180830381858888f19350505050151561091f57600080fd5b42813373ffffffffffffffffffffffffffffffffffffffff167f5c9874487a2258c6bd6dc39a2cfcf7ea944b50b79d9a7152668779687b2ebd8d60405160405180910390a45b4261097982346118e690919063ffffffff16565b3373ffffffffffffffffffffffffffffffffffffffff167f350a09487d622378c6efbda255f996387696319f803a2e53eee64f7aa70be85a60405160405180910390a46109e36109d282346118e690919063ffffffff16565b6004546118ff90919063ffffffff16565b6004819055506003546004541415610aa657423373ffffffffffffffffffffffffffffffffffffffff167f25630de45a38a90cbca3a2eb35a8197e51b56d6d912581711e5e3773fe77cabc60405160405180910390a36002600c60016101000a81548160ff02191690836005811115610a5857fe5b021790555042600c60019054906101000a900460ff166005811115610a7957fe5b7faaae373901e745122c2e0925ad006227969c6cd190b7d5ea2fb7fdbd1d955b3560405160405180910390a35b50565b60011515600c60009054906101000a900460ff161515141515610acb57600080fd5b6012544210151515610adc57600080fd5b60006005811115610ae957fe5b600c60019054906101000a900460ff166005811115610b0457fe5b141515610b1057600080fd5b60011515600d60003373ffffffffffffffffffffffffffffffffffffffff1673ffffffffffffffffffffffffffffffffffffffff16815260200190815260200160002060009054906101000a900460ff161515141515610b6f57600080fd5b60001515601160003373ffffffffffffffffffffffffffffffffffffffff1673ffffffffffffffffffffffffffffffffffffffff16815260200190815260200160002060009054906101000a900460ff161515141515610bce57600080fd5b60106000815480929190600101919050555060011515601160003373ffffffffffffffffffffffffffffffffffffffff1673ffffffffffffffffffffffffffffffffffffffff16815260200190815260200160002060009054906101000a90505050423373ffffffffffffffffffffffffffffffffffffffff167fd7173ce7e4ce6f6d075259ac1a467ab8290db175a2cee8587a663c006b97e12960405160405180910390a3601054600f541415610c8957610c8861191d565b5b565b60011515600c60009054906101000a900460ff161515141515610cad57600080fd5b60011515600d60003373ffffffffffffffffffffffffffffffffffffffff1673ffffffffffffffffffffffffffffffffffffffff16815260200190815260200160002060009054906101000a900460ff161515141515610d0c57600080fd5b60046005811115610d1957fe5b600c60019054906101000a900460ff166005811115610d3457fe5b141515610d4057600080fd5b600e60003373ffffffffffffffffffffffffffffffffffffffff1673ffffffffffffffffffffffffffffffffffffffff168152602001908152602001600020543073ffffffffffffffffffffffffffffffffffffffff163110151515610da257fe5b3373ffffffffffffffffffffffffffffffffffffffff166108fc600e60003373ffffffffffffffffffffffffffffffffffffffff1673ffffffffffffffffffffffffffffffffffffffff168152602001908152602001600020549081150290604051600060405180830381858888f193505050501515610e2157600080fd5b42600e60003373ffffffffffffffffffffffffffffffffffffffff1673ffffffffffffffffffffffffffffffffffffffff168152602001908152602001600020543373ffffffffffffffffffffffffffffffffffffffff167f71e252e33f19f0223f47f27d00910548d26488b9b55cb5b410b75e273152f8d660405160405180910390a460003073ffffffffffffffffffffffffffffffffffffffff16311415610f8c576000600c60006101000a81548160ff02191690831515021790555042600c60009054906101000a900460ff1615157f160914ea27c60aa29a5f3a69d74e6069869de36e38939de1e0a66b921d8623d260405160405180910390a36003600c60016101000a81548160ff02191690836005811115610f3e57fe5b021790555042600c60019054906101000a900460ff166005811115610f5f57fe5b7faaae373901e745122c2e0925ad006227969c6cd190b7d5ea2fb7fdbd1d955b3560405160405180910390a35b565b6000809054906101000a900473ffffffffffffffffffffffffffffffffffffffff1673ffffffffffffffffffffffffffffffffffffffff163373ffffffffffffffffffffffffffffffffffffffff16141515610fe957600080fd5b6000809054906101000a900473ffffffffffffffffffffffffffffffffffffffff1673ffffffffffffffffffffffffffffffffffffffff16ff5b6000809054906101000a900473ffffffffffffffffffffffffffffffffffffffff1681565b600060011515600c60009054906101000a900460ff16151514151561106c57600080fd5b60011515600d60003373ffffffffffffffffffffffffffffffffffffffff1673ffffffffffffffffffffffffffffffffffffffff16815260200190815260200160002060009054906101000a900460ff1615151415156110cb57600080fd5b60001515601460003373ffffffffffffffffffffffffffffffffffffffff1673ffffffffffffffffffffffffffffffffffffffff16815260200190815260200160002060009054906101000a900460ff16151514151561112a57600080fd5b60136000815480929190600101919050555060011515601460003373ffffffffffffffffffffffffffffffffffffffff1673ffffffffffffffffffffffffffffffffffffffff16815260200190815260200160002060009054906101000a90505050423373ffffffffffffffffffffffffffffffffffffffff167f1db613004119dde2a638b639fba9960c0e6064ee7c2d06f300e41c78920ed6dc60405160405180910390a3601354600f5414156111eb576111e461198b565b90506111f0565b600190505b90565b600080600581111561120157fe5b600c60019054906101000a900460ff16600581111561121c57fe5b14151561122857600080fd5b600090506002543073ffffffffffffffffffffffffffffffffffffffff16311015156113ba5761127a6002543073ffffffffffffffffffffffffffffffffffffffff16316118e690919063ffffffff16565b90506112a6813073ffffffffffffffffffffffffffffffffffffffff16316118e690919063ffffffff16565b6002541415156112b257fe5b3481111515156112be57fe5b600081111561134d573373ffffffffffffffffffffffffffffffffffffffff166108fc829081150290604051600060405180830381858888f19350505050151561130757600080fd5b42813373ffffffffffffffffffffffffffffffffffffffff167f566803f6e271b911c84f87631bcd310d6a6510bf8882577a96fc76975703e43160405160405180910390a45b6001600c60016101000a81548160ff0219169083600581111561136c57fe5b021790555042600c60019054906101000a900460ff16600581111561138d57fe5b7faaae373901e745122c2e0925ad006227969c6cd190b7d5ea2fb7fdbd1d955b3560405160405180910390a35b6001600d60003373ffffffffffffffffffffffffffffffffffffffff1673ffffffffffffffffffffffffffffffffffffffff16815260200190815260200160002060006101000a81548160ff021916908315150217905550600f6000815480929190600101919050555061148861143a82346118e690919063ffffffff16565b600e60003373ffffffffffffffffffffffffffffffffffffffff1673ffffffffffffffffffffffffffffffffffffffff168152602001908152602001600020546118ff90919063ffffffff16565b600e60003373ffffffffffffffffffffffffffffffffffffffff1673ffffffffffffffffffffffffffffffffffffffff16815260200190815260200160002081905550426114df82346118e690919063ffffffff16565b3373ffffffffffffffffffffffffffffffffffffffff167f1b0969ce7f5b05c5e0969329a05cdbd7e2e2f6cee33ba26fd6e6bbcff82312cd60405160405180910390a450565b600060011515600c60009054906101000a900460ff16151514151561154957600080fd5b60011515600d60003373ffffffffffffffffffffffffffffffffffffffff1673ffffffffffffffffffffffffffffffffffffffff16815260200190815260200160002060009054906101000a900460ff1615151415156115a857600080fd5b600260058111156115b557fe5b600c60019054906101000a900460ff1660058111156115d057fe5b1415156115dc57600080fd5b6000600e60003373ffffffffffffffffffffffffffffffffffffffff1673ffffffffffffffffffffffffffffffffffffffff1681526020019081526020016000205411151561162a57600080fd5b600f5460035481151561163957fe5b049050803073ffffffffffffffffffffffffffffffffffffffff16311015151561165f57fe5b3373ffffffffffffffffffffffffffffffffffffffff166108fc829081150290604051600060405180830381858888f19350505050151561169f57600080fd5b42813373ffffffffffffffffffffffffffffffffffffffff167f052f6685df2f773f854b17db1d82e2352e222010daaf8175761f02ef8782c40360405160405180910390a460003073ffffffffffffffffffffffffffffffffffffffff163114156117cb576000600c60006101000a81548160ff02191690831515021790555042600c60009054906101000a900460ff1615157f160914ea27c60aa29a5f3a69d74e6069869de36e38939de1e0a66b921d8623d260405160405180910390a36003600c60016101000a81548160ff0219169083600581111561177d57fe5b021790555042600c60019054906101000a900460ff16600581111561179e57fe5b7faaae373901e745122c2e0925ad006227969c6cd190b7d5ea2fb7fdbd1d955b3560405160405180910390a35b50565b6000806000806000806000806000806000600160009054906101000a900473ffffffffffffffffffffffffffffffffffffffff16600b54600254600654600854600754600554600354600c60019054906101000a900460ff16600c60009054906101000a900460ff163073ffffffffffffffffffffffffffffffffffffffff16319a509a509a509a509a509a509a509a509a509a509a50909192939495969798999a565b6000809054906101000a900473ffffffffffffffffffffffffffffffffffffffff1673ffffffffffffffffffffffffffffffffffffffff163373ffffffffffffffffffffffffffffffffffffffff161415156118cd57600080fd5b8073ffffffffffffffffffffffffffffffffffffffff16ff5b60008282111515156118f457fe5b818303905092915050565b600080828401905083811015151561191357fe5b8091505092915050565b6004600c60016101000a81548160ff0219169083600581111561193c57fe5b021790555042600c60019054906101000a900460ff16600581111561195d57fe5b7faaae373901e745122c2e0925ad006227969c6cd190b7d5ea2fb7fdbd1d955b3560405160405180910390a3565b6000806000809054906101000a900473ffffffffffffffffffffffffffffffffffffffff1673ffffffffffffffffffffffffffffffffffffffff1660405180807f7365744672617564537461747573286164647265737329000000000000000000815250601701905060405180910390207c01000000000000000000000000000000000000000000000000000000009004600160009054906101000a900473ffffffffffffffffffffffffffffffffffffffff166040518263ffffffff167c0100000000000000000000000000000000000000000000000000000000028152600401808273ffffffffffffffffffffffffffffffffffffffff1673ffffffffffffffffffffffffffffffffffffffff16815260200191505060006040518083038160008761646e5a03f192505050905042811515600160009054906101000a900473ffffffffffffffffffffffffffffffffffffffff1673ffffffffffffffffffffffffffffffffffffffff167fc1bb1d1e99d1e8d2705ba85717226a3fd9a86e4de2284b00dfe6f33538d5249f60405160405180910390a48091505090565b6000808284811515611b3957fe5b04905080915050929150505600a165627a7a723058208e1d0033323015c5b83f60bfd2b52d538dfdbb6c3718906026503a7b2b25d9b70029a165627a7a72305820603d98030aeca19138872f651d29d9557b43f7693155bed4f63e86eb5d055f6a0029",
  "source": "pragma solidity ^0.4.18;\n\nimport './common/SafeMath.sol';\nimport './common/Destructible.sol';\nimport './Credit.sol';\n\n/** @title Peer to peer lending contract.\n  * Inherits the Ownable and Destructible contracts.\n  */\ncontract PeerToPeerLending is Destructible {\n    /** @dev Usings */\n    // Using SafeMath for our calculations with uints.\n    using SafeMath for uint;\n\n    /** @dev State variables */\n\n    // User structure\n    struct User {\n        // Is the user currently credited.\n        bool credited;\n\n        // The adress of the active credit.\n        address activeCredit;\n\n        // Is the user marked as fraudlent.\n        bool fraudStatus;\n\n        // All user credits.\n        address[] allCredits;\n    }\n\n    // We store all users in a mapping.\n    mapping(address => User) public users;\n\n    // Array of all credits adresses.\n    address[] public credits;\n\n    /** @dev Events */\n    event LogCreditCreated(address indexed _address, address indexed _borrower, uint indexed timestamp);\n    event LogCreditStateChanged(address indexed _address, Credit.State indexed state, uint indexed timestamp);\n    event LogCreditActiveChanged(address indexed _address, bool indexed active, uint indexed timestamp);\n    event LogUserSetFraud(address indexed _address, bool fraudStatus, uint timestamp);\n\n    /** @dev Constructor */\n    function PeerToPeerLending() public {\n\n    }\n\n    /** @dev Credit application function.\n      * @param requestedAmount Requested funding amount in wei.\n      * @param repaymentsCount Requested repayments count.\n      * @param creditDescription The description of the funding.\n      * @return credit Return credit address.\n      * The function publishesh another contract which is the credit contract.\n      * The owner of the new contract is the present contract.\n      */\n    function applyForCredit(uint requestedAmount, uint repaymentsCount, uint interest, bytes32 creditDescription) public returns(address _credit) {\n        // The user should not have been credited;\n        require(users[msg.sender].credited == false);\n\n        // THe user should not be marked as fraudlent.\n        require(users[msg.sender].fraudStatus == false);\n\n        // Assert there is no active credit for the user.\n        assert(users[msg.sender].activeCredit == 0);\n\n        // Mark the user as credited. Prevent from reentrancy.\n        users[msg.sender].credited = true;\n\n        // Create a new credit contract with the given parameters.\n        Credit credit = new Credit(requestedAmount, repaymentsCount, interest, creditDescription);\n\n        // Set the user's active credit contract.\n        users[msg.sender].activeCredit = credit;\n\n        // Add the credit contract to our list with contracts.\n        credits.push(credit);\n\n        // Add the credit to the user's profile.\n        users[msg.sender].allCredits.push(credit);\n\n        // Log the credit creation event.\n        LogCreditCreated(credit, msg.sender, block.timestamp);\n\n        // Return the address of the newly created credit contract.\n        return credit;\n    }\n\n    /** @dev Get the list with all credits.\n      * @return credits Returns list of credit addresses.\n      */\n    function getCredits() public view returns (address[]) {\n        return credits;\n    }\n\n    /** @dev Get all users credits.\n      * @return users[msg.sender].allCredits Return user credits.\n      */\n    function getUserCredits() public view returns (address[]) {\n        return users[msg.sender].allCredits;\n    }\n\n    /** @dev Sets user fraudlent status true.\n     * @param _borrower The user's address.\n     * @return users[_borrower].fraudStatus Boolean of the new fraud status.\n     */\n    function setFraudStatus(address _borrower) external returns (bool) {\n        // Update user fraud status.\n        users[_borrower].fraudStatus = true;\n\n        // Log fraud status.\n        LogUserSetFraud(_borrower, users[_borrower].fraudStatus, block.timestamp);\n\n        return users[_borrower].fraudStatus;\n    }\n\n    /** @dev Function to switch active state of a credit.\n      * @param _credit The credit's address.\n      * @param state New state.\n      */\n    function changeCreditState (Credit _credit, Credit.State state) public onlyOwner {\n        // Call credit contract changeStage.\n        Credit credit = Credit(_credit);\n        credit.changeState(state);\n\n        // Log state change.\n        LogCreditStateChanged(credit, state, block.timestamp);\n    }\n\n    /** @dev Function to toggle active state of credit contract.\n      * @param _credit The credit's address.\n      */\n    function changeCreditState (Credit _credit) public onlyOwner {\n        // Call credit contract toggleActive method.\n        Credit credit = Credit(_credit);\n        bool active = credit.toggleActive();\n\n        // Log state change.\n        LogCreditActiveChanged(credit, active, block.timestamp);\n    }\n}",
  "sourcePath": "/Users/milenradkov/git/softuni/blockchain-dev-camp/p2p-lending/smart-contracts/contracts/PeerToPeerLending.sol",
  "compiler": {
    "name": "solc",
    "version": "0.4.18+commit.9cf6e910.Emscripten.clang"
  },
  "schemaVersion": "1.0.1",
  "updatedAt": "2018-03-10T14:04:35.109Z"
}