{
  "contractName": "PeerToPeerLending",
  "abi": [
    {
      "constant": true,
      "inputs": [
        {
          "name": "",
          "type": "uint256"
        }
      ],
      "name": "credits",
      "outputs": [
        {
          "name": "",
          "type": "address"
        }
      ],
      "payable": false,
      "stateMutability": "view",
      "type": "function"
    },
    {
      "constant": true,
      "inputs": [],
      "name": "getCredits",
      "outputs": [
        {
          "name": "",
          "type": "address[]"
        }
      ],
      "payable": false,
      "stateMutability": "view",
      "type": "function"
    },
    {
      "constant": false,
      "inputs": [],
      "name": "destroy",
      "outputs": [],
      "payable": false,
      "stateMutability": "nonpayable",
      "type": "function"
    },
    {
      "constant": true,
      "inputs": [],
      "name": "owner",
      "outputs": [
        {
          "name": "",
          "type": "address"
        }
      ],
      "payable": false,
      "stateMutability": "view",
      "type": "function"
    },
    {
      "constant": false,
      "inputs": [
        {
          "name": "requestedAmount",
          "type": "uint256"
        },
        {
          "name": "repaymentsCount",
          "type": "uint256"
        },
        {
          "name": "creditDescription",
          "type": "bytes32"
        }
      ],
      "name": "applyForCredit",
      "outputs": [
        {
          "name": "_credit",
          "type": "address"
        }
      ],
      "payable": false,
      "stateMutability": "nonpayable",
      "type": "function"
    },
    {
      "constant": true,
      "inputs": [
        {
          "name": "",
          "type": "address"
        }
      ],
      "name": "users",
      "outputs": [
        {
          "name": "credited",
          "type": "bool"
        },
        {
          "name": "activeCredit",
          "type": "address"
        },
        {
          "name": "fraudStatus",
          "type": "bool"
        }
      ],
      "payable": false,
      "stateMutability": "view",
      "type": "function"
    },
    {
      "constant": false,
      "inputs": [
        {
          "name": "_borrower",
          "type": "address"
        }
      ],
      "name": "setFraudStatus",
      "outputs": [
        {
          "name": "",
          "type": "bool"
        }
      ],
      "payable": false,
      "stateMutability": "nonpayable",
      "type": "function"
    },
    {
      "constant": false,
      "inputs": [
        {
          "name": "_recipient",
          "type": "address"
        }
      ],
      "name": "destroyAndSend",
      "outputs": [],
      "payable": false,
      "stateMutability": "nonpayable",
      "type": "function"
    },
    {
      "inputs": [],
      "payable": false,
      "stateMutability": "nonpayable",
      "type": "constructor"
    },
    {
      "anonymous": false,
      "inputs": [
        {
          "indexed": true,
          "name": "_address",
          "type": "address"
        },
        {
          "indexed": true,
          "name": "_borrower",
          "type": "address"
        },
        {
          "indexed": true,
          "name": "timestamp",
          "type": "uint256"
        }
      ],
      "name": "LogCreditCreated",
      "type": "event"
    },
    {
      "anonymous": false,
      "inputs": [
        {
          "indexed": true,
          "name": "_currentOwner",
          "type": "address"
        },
        {
          "indexed": true,
          "name": "_newOwner",
          "type": "address"
        }
      ],
      "name": "LogOwnershipTransfered",
      "type": "event"
    }
  ],
  "bytecode": "0x6060604052341561000f57600080fd5b336000806101000a81548173ffffffffffffffffffffffffffffffffffffffff021916908373ffffffffffffffffffffffffffffffffffffffff1602179055506124828061005e6000396000f30060606040526004361061008e576000357c0100000000000000000000000000000000000000000000000000000000900463ffffffff168063036a1c2214610093578063823a71af146100f657806383197ef0146101605780638da5cb5b14610175578063a74e3f70146101ca578063a87430ba14610243578063bb9e4247146102d2578063f5074f4114610323575b600080fd5b341561009e57600080fd5b6100b4600480803590602001909190505061035c565b604051808273ffffffffffffffffffffffffffffffffffffffff1673ffffffffffffffffffffffffffffffffffffffff16815260200191505060405180910390f35b341561010157600080fd5b61010961039b565b6040518080602001828103825283818151815260200191508051906020019060200280838360005b8381101561014c578082015181840152602081019050610131565b505050509050019250505060405180910390f35b341561016b57600080fd5b61017361042f565b005b341561018057600080fd5b6101886104c4565b604051808273ffffffffffffffffffffffffffffffffffffffff1673ffffffffffffffffffffffffffffffffffffffff16815260200191505060405180910390f35b34156101d557600080fd5b6102016004808035906020019091908035906020019091908035600019169060200190919050506104e9565b604051808273ffffffffffffffffffffffffffffffffffffffff1673ffffffffffffffffffffffffffffffffffffffff16815260200191505060405180910390f35b341561024e57600080fd5b61027a600480803573ffffffffffffffffffffffffffffffffffffffff1690602001909190505061081b565b60405180841515151581526020018373ffffffffffffffffffffffffffffffffffffffff1673ffffffffffffffffffffffffffffffffffffffff16815260200182151515158152602001935050505060405180910390f35b34156102dd57600080fd5b610309600480803573ffffffffffffffffffffffffffffffffffffffff1690602001909190505061087f565b604051808215151515815260200191505060405180910390f35b341561032e57600080fd5b61035a600480803573ffffffffffffffffffffffffffffffffffffffff16906020019091905050610932565b005b60028181548110151561036b57fe5b90600052602060002090016000915054906101000a900473ffffffffffffffffffffffffffffffffffffffff1681565b6103a36109a6565b600280548060200260200160405190810160405280929190818152602001828054801561042557602002820191906000526020600020905b8160009054906101000a900473ffffffffffffffffffffffffffffffffffffffff1673ffffffffffffffffffffffffffffffffffffffff16815260200190600101908083116103db575b5050505050905090565b6000809054906101000a900473ffffffffffffffffffffffffffffffffffffffff1673ffffffffffffffffffffffffffffffffffffffff163373ffffffffffffffffffffffffffffffffffffffff1614151561048a57600080fd5b6000809054906101000a900473ffffffffffffffffffffffffffffffffffffffff1673ffffffffffffffffffffffffffffffffffffffff16ff5b6000809054906101000a900473ffffffffffffffffffffffffffffffffffffffff1681565b60008060001515600160003373ffffffffffffffffffffffffffffffffffffffff1673ffffffffffffffffffffffffffffffffffffffff16815260200190815260200160002060000160009054906101000a900460ff16151514151561054e57600080fd5b60001515600160003373ffffffffffffffffffffffffffffffffffffffff1673ffffffffffffffffffffffffffffffffffffffff16815260200190815260200160002060000160159054906101000a900460ff1615151415156105b057600080fd5b6000600160003373ffffffffffffffffffffffffffffffffffffffff1673ffffffffffffffffffffffffffffffffffffffff16815260200190815260200160002060000160019054906101000a900473ffffffffffffffffffffffffffffffffffffffff1673ffffffffffffffffffffffffffffffffffffffff1614151561063457fe5b60018060003373ffffffffffffffffffffffffffffffffffffffff1673ffffffffffffffffffffffffffffffffffffffff16815260200190815260200160002060000160006101000a81548160ff0219169083151502179055508484846106996109ba565b8084815260200183815260200182600019166000191681526020019350505050604051809103906000f08015156106cf57600080fd5b905080600160003373ffffffffffffffffffffffffffffffffffffffff1673ffffffffffffffffffffffffffffffffffffffff16815260200190815260200160002060000160016101000a81548173ffffffffffffffffffffffffffffffffffffffff021916908373ffffffffffffffffffffffffffffffffffffffff1602179055506002805480600101828161076691906109ca565b9160005260206000209001600083909190916101000a81548173ffffffffffffffffffffffffffffffffffffffff021916908373ffffffffffffffffffffffffffffffffffffffff16021790555050423373ffffffffffffffffffffffffffffffffffffffff168273ffffffffffffffffffffffffffffffffffffffff167fa0c75b76492543c8eafdc7e35272287bd6f229dcf0f6c22429343044718c510860405160405180910390a4809150509392505050565b60016020528060005260406000206000915090508060000160009054906101000a900460ff16908060000160019054906101000a900473ffffffffffffffffffffffffffffffffffffffff16908060000160159054906101000a900460ff16905083565b600060018060008473ffffffffffffffffffffffffffffffffffffffff1673ffffffffffffffffffffffffffffffffffffffff16815260200190815260200160002060000160156101000a81548160ff021916908315150217905550600160008373ffffffffffffffffffffffffffffffffffffffff1673ffffffffffffffffffffffffffffffffffffffff16815260200190815260200160002060000160159054906101000a900460ff169050919050565b6000809054906101000a900473ffffffffffffffffffffffffffffffffffffffff1673ffffffffffffffffffffffffffffffffffffffff163373ffffffffffffffffffffffffffffffffffffffff1614151561098d57600080fd5b8073ffffffffffffffffffffffffffffffffffffffff16ff5b602060405190810160405280600081525090565b604051611a3b80610a1c83390190565b8154818355818115116109f1578183600052602060002091820191016109f091906109f6565b5b505050565b610a1891905b80821115610a145760008160009055506001016109fc565b5090565b90560060606040526001600c60006101000a81548160ff0219169083151502179055506000600f556000601055620151804201601255600060135534156200004357600080fd5b60405160608062001a3b83398101604052808051906020019091908051906020019091908051906020019091905050336000806101000a81548173ffffffffffffffffffffffffffffffffffffffff021916908373ffffffffffffffffffffffffffffffffffffffff16021790555032600160006101000a81548173ffffffffffffffffffffffffffffffffffffffff021916908373ffffffffffffffffffffffffffffffffffffffff16021790555061138860058190555082600281905550816006819055508160078190555062000138600554600254620001ec64010000000002620015da179091906401000000009004565b600381905550620001656006546003546200020b6401000000000262001782179091906401000000009004565b60088190555080600b81600019169055504260098190555042600160009054906101000a900473ffffffffffffffffffffffffffffffffffffffff1673ffffffffffffffffffffffffffffffffffffffff167ff9f75c99c0e3522cd19ffc66fd6c94989a3f0821d37d5c5bb176aab904c6335d60405160405180910390a350505062000227565b60008082840190508381101515156200020157fe5b8091505092915050565b60008082848115156200021a57fe5b0490508091505092915050565b61180480620002376000396000f3006060604052600436106100db576000357c0100000000000000000000000000000000000000000000000000000000900463ffffffff16806312065fe0146100e057806328fd10d71461010957806329c68dc11461015a5780633ccfd60b1461016f578063402d88831461018457806343c14b221461018e578063590e1ae3146101bb57806383197ef0146101d05780638da5cb5b146101e5578063b9172dec1461023a578063d85da7b614610260578063e8b5e51f1461028d578063efd475ab14610297578063f06817cf146102ac578063f5074f4114610361575b600080fd5b34156100eb57600080fd5b6100f361039a565b6040518082815260200191505060405180910390f35b341561011457600080fd5b610140600480803573ffffffffffffffffffffffffffffffffffffffff169060200190919050506103b9565b604051808215151515815260200191505060405180910390f35b341561016557600080fd5b61016d6103d9565b005b341561017a57600080fd5b610182610460565b005b61018c6105a5565b005b341561019957600080fd5b6101a16107b9565b604051808215151515815260200191505060405180910390f35b34156101c657600080fd5b6101ce6109a2565b005b34156101db57600080fd5b6101e3610c1d565b005b34156101f057600080fd5b6101f8610cb2565b604051808273ffffffffffffffffffffffffffffffffffffffff1673ffffffffffffffffffffffffffffffffffffffff16815260200191505060405180910390f35b341561024557600080fd5b61025e600480803560ff16906020019091905050610cd7565b005b341561026b57600080fd5b610273610d58565b604051808215151515815260200191505060405180910390f35b610295610f03565b005b34156102a257600080fd5b6102aa6111ed565b005b34156102b757600080fd5b6102bf6114a9565b604051808c73ffffffffffffffffffffffffffffffffffffffff1673ffffffffffffffffffffffffffffffffffffffff1681526020018b600019166000191681526020018a815260200189815260200188815260200187815260200186815260200185815260200184600481111561033357fe5b60ff168152602001831515151581526020018281526020019b50505050505050505050505060405180910390f35b341561036c57600080fd5b610398600480803573ffffffffffffffffffffffffffffffffffffffff1690602001909190505061154d565b005b60003073ffffffffffffffffffffffffffffffffffffffff1631905090565b600d6020528060005260406000206000915054906101000a900460ff1681565b6000809054906101000a900473ffffffffffffffffffffffffffffffffffffffff1673ffffffffffffffffffffffffffffffffffffffff163373ffffffffffffffffffffffffffffffffffffffff1614151561043457600080fd5b600c60009054906101000a900460ff1615600c60006101000a81548160ff021916908315150217905550565b60011515600c60009054906101000a900460ff16151514151561048257600080fd5b600160009054906101000a900473ffffffffffffffffffffffffffffffffffffffff1673ffffffffffffffffffffffffffffffffffffffff163373ffffffffffffffffffffffffffffffffffffffff161415156104de57600080fd5b6002543073ffffffffffffffffffffffffffffffffffffffff16311015151561050657600080fd5b6001600c60016101000a81548160ff0219169083600481111561052557fe5b0217905550600160009054906101000a900473ffffffffffffffffffffffffffffffffffffffff1673ffffffffffffffffffffffffffffffffffffffff166108fc3073ffffffffffffffffffffffffffffffffffffffff16319081150290604051600060405180830381858888f1935050505015156105a357600080fd5b565b6000600160009054906101000a900473ffffffffffffffffffffffffffffffffffffffff1673ffffffffffffffffffffffffffffffffffffffff163373ffffffffffffffffffffffffffffffffffffffff1614151561060357600080fd5b6001600481111561061057fe5b600c60019054906101000a900460ff16600481111561062b57fe5b14151561063757600080fd5b600060075411151561064857600080fd5b600854341015151561065957600080fd5b60035460045410151561066857fe5b6007600081548092919060019003919050555042600a8190555060009050600854341115610758576106a5600854346115c190919063ffffffff16565b90506106ba81346115c190919063ffffffff16565b6008541415156106c657fe5b3481111515156106d257fe5b3373ffffffffffffffffffffffffffffffffffffffff166108fc829081150290604051600060405180830381858888f19350505050151561071257600080fd5b42813373ffffffffffffffffffffffffffffffffffffffff167f5c9874487a2258c6bd6dc39a2cfcf7ea944b50b79d9a7152668779687b2ebd8d60405160405180910390a45b61077f61076e82346115c190919063ffffffff16565b6004546115da90919063ffffffff16565b60048190555060035460045414156107b6576002600c60016101000a81548160ff021916908360048111156107b057fe5b02179055505b50565b600060011515600c60009054906101000a900460ff1615151415156107dd57600080fd5b60125442101515156107ee57600080fd5b600060048111156107fb57fe5b600c60019054906101000a900460ff16600481111561081657fe5b14151561082257600080fd5b60011515600d60003373ffffffffffffffffffffffffffffffffffffffff1673ffffffffffffffffffffffffffffffffffffffff16815260200190815260200160002060009054906101000a900460ff16151514151561088157600080fd5b60001515601160003373ffffffffffffffffffffffffffffffffffffffff1673ffffffffffffffffffffffffffffffffffffffff16815260200190815260200160002060009054906101000a900460ff1615151415156108e057600080fd5b60106000815480929190600101919050555060011515601160003373ffffffffffffffffffffffffffffffffffffffff1673ffffffffffffffffffffffffffffffffffffffff16815260200190815260200160002060009054906101000a90505050423373ffffffffffffffffffffffffffffffffffffffff167fd7173ce7e4ce6f6d075259ac1a467ab8290db175a2cee8587a663c006b97e12960405160405180910390a3601054600f54141561099b5761099a6115f8565b5b6001905090565b60011515600c60009054906101000a900460ff1615151415156109c457600080fd5b60011515600d60003373ffffffffffffffffffffffffffffffffffffffff1673ffffffffffffffffffffffffffffffffffffffff16815260200190815260200160002060009054906101000a900460ff161515141515610a2357600080fd5b600480811115610a2f57fe5b600c60019054906101000a900460ff166004811115610a4a57fe5b141515610a5657600080fd5b600e60003373ffffffffffffffffffffffffffffffffffffffff1673ffffffffffffffffffffffffffffffffffffffff168152602001908152602001600020543073ffffffffffffffffffffffffffffffffffffffff163110151515610ab857fe5b3373ffffffffffffffffffffffffffffffffffffffff166108fc600e60003373ffffffffffffffffffffffffffffffffffffffff1673ffffffffffffffffffffffffffffffffffffffff168152602001908152602001600020549081150290604051600060405180830381858888f193505050501515610b3757600080fd5b42600e60003373ffffffffffffffffffffffffffffffffffffffff1673ffffffffffffffffffffffffffffffffffffffff168152602001908152602001600020543373ffffffffffffffffffffffffffffffffffffffff167f71e252e33f19f0223f47f27d00910548d26488b9b55cb5b410b75e273152f8d660405160405180910390a460003073ffffffffffffffffffffffffffffffffffffffff16311415610c1b576000600c60006101000a81548160ff0219169083151502179055506003600c60016101000a81548160ff02191690836004811115610c1557fe5b02179055505b565b6000809054906101000a900473ffffffffffffffffffffffffffffffffffffffff1673ffffffffffffffffffffffffffffffffffffffff163373ffffffffffffffffffffffffffffffffffffffff16141515610c7857600080fd5b6000809054906101000a900473ffffffffffffffffffffffffffffffffffffffff1673ffffffffffffffffffffffffffffffffffffffff16ff5b6000809054906101000a900473ffffffffffffffffffffffffffffffffffffffff1681565b6000809054906101000a900473ffffffffffffffffffffffffffffffffffffffff1673ffffffffffffffffffffffffffffffffffffffff163373ffffffffffffffffffffffffffffffffffffffff16141515610d3257600080fd5b80600c60016101000a81548160ff02191690836004811115610d5057fe5b021790555050565b600060011515600c60009054906101000a900460ff161515141515610d7c57600080fd5b60011515600d60003373ffffffffffffffffffffffffffffffffffffffff1673ffffffffffffffffffffffffffffffffffffffff16815260200190815260200160002060009054906101000a900460ff161515141515610ddb57600080fd5b60001515601460003373ffffffffffffffffffffffffffffffffffffffff1673ffffffffffffffffffffffffffffffffffffffff16815260200190815260200160002060009054906101000a900460ff161515141515610e3a57600080fd5b60136000815480929190600101919050555060011515601460003373ffffffffffffffffffffffffffffffffffffffff1673ffffffffffffffffffffffffffffffffffffffff16815260200190815260200160002060009054906101000a90505050423373ffffffffffffffffffffffffffffffffffffffff167f1db613004119dde2a638b639fba9960c0e6064ee7c2d06f300e41c78920ed6dc60405160405180910390a3601354600f541415610efb57610ef461164b565b9050610f00565b600190505b90565b6000806004811115610f1157fe5b600c60019054906101000a900460ff166004811115610f2c57fe5b141515610f3857600080fd5b600090506002543073ffffffffffffffffffffffffffffffffffffffff163110151561108257610f8a6002543073ffffffffffffffffffffffffffffffffffffffff16316115c190919063ffffffff16565b9050610fb6813073ffffffffffffffffffffffffffffffffffffffff16316115c190919063ffffffff16565b600254141515610fc257fe5b348111151515610fce57fe5b600081111561105d573373ffffffffffffffffffffffffffffffffffffffff166108fc829081150290604051600060405180830381858888f19350505050151561101757600080fd5b42813373ffffffffffffffffffffffffffffffffffffffff167f566803f6e271b911c84f87631bcd310d6a6510bf8882577a96fc76975703e43160405160405180910390a45b6001600c60016101000a81548160ff0219169083600481111561107c57fe5b02179055505b6001600d60003373ffffffffffffffffffffffffffffffffffffffff1673ffffffffffffffffffffffffffffffffffffffff16815260200190815260200160002060006101000a81548160ff021916908315150217905550600f6000815480929190600101919050555061115061110282346115c190919063ffffffff16565b600e60003373ffffffffffffffffffffffffffffffffffffffff1673ffffffffffffffffffffffffffffffffffffffff168152602001908152602001600020546115da90919063ffffffff16565b600e60003373ffffffffffffffffffffffffffffffffffffffff1673ffffffffffffffffffffffffffffffffffffffff16815260200190815260200160002081905550426111a782346115c190919063ffffffff16565b3373ffffffffffffffffffffffffffffffffffffffff167f1b0969ce7f5b05c5e0969329a05cdbd7e2e2f6cee33ba26fd6e6bbcff82312cd60405160405180910390a450565b60008060011515600c60009054906101000a900460ff16151514151561121257600080fd5b60011515600d60003373ffffffffffffffffffffffffffffffffffffffff1673ffffffffffffffffffffffffffffffffffffffff16815260200190815260200160002060009054906101000a900460ff16151514151561127157600080fd5b6002600481111561127e57fe5b600c60019054906101000a900460ff16600481111561129957fe5b1415156112a557600080fd5b6000600e60003373ffffffffffffffffffffffffffffffffffffffff1673ffffffffffffffffffffffffffffffffffffffff168152602001908152602001600020541115156112f357600080fd5b611347600e60003373ffffffffffffffffffffffffffffffffffffffff1673ffffffffffffffffffffffffffffffffffffffff1681526020019081526020016000205460035461178290919063ffffffff16565b915061139b82600e60003373ffffffffffffffffffffffffffffffffffffffff1673ffffffffffffffffffffffffffffffffffffffff1681526020019081526020016000205461179d90919063ffffffff16565b9050803073ffffffffffffffffffffffffffffffffffffffff1631101515156113c057fe5b3373ffffffffffffffffffffffffffffffffffffffff166108fc829081150290604051600060405180830381858888f19350505050151561140057600080fd5b42813373ffffffffffffffffffffffffffffffffffffffff167f052f6685df2f773f854b17db1d82e2352e222010daaf8175761f02ef8782c40360405160405180910390a460003073ffffffffffffffffffffffffffffffffffffffff163114156114a5576000600c60006101000a81548160ff0219169083151502179055506003600c60016101000a81548160ff0219169083600481111561149f57fe5b02179055505b5050565b6000806000806000806000806000806000600160009054906101000a900473ffffffffffffffffffffffffffffffffffffffff16600b54600254600654600854600754600554600354600c60019054906101000a900460ff16600c60009054906101000a900460ff163073ffffffffffffffffffffffffffffffffffffffff16319a509a509a509a509a509a509a509a509a509a509a50909192939495969798999a565b6000809054906101000a900473ffffffffffffffffffffffffffffffffffffffff1673ffffffffffffffffffffffffffffffffffffffff163373ffffffffffffffffffffffffffffffffffffffff161415156115a857600080fd5b8073ffffffffffffffffffffffffffffffffffffffff16ff5b60008282111515156115cf57fe5b818303905092915050565b60008082840190508381101515156115ee57fe5b8091505092915050565b6004600c60016101000a81548160ff0219169083600481111561161757fe5b0217905550427f7cf99a9595797b44891a260c47f5352268badcd8df273631e5843bc8edbbf47160405160405180910390a2565b6000806000809054906101000a900473ffffffffffffffffffffffffffffffffffffffff1673ffffffffffffffffffffffffffffffffffffffff1660405180807f7365744672617564537461747573286164647265737329000000000000000000815250601701905060405180910390207c01000000000000000000000000000000000000000000000000000000009004600160009054906101000a900473ffffffffffffffffffffffffffffffffffffffff166040518263ffffffff167c0100000000000000000000000000000000000000000000000000000000028152600401808273ffffffffffffffffffffffffffffffffffffffff1673ffffffffffffffffffffffffffffffffffffffff16815260200191505060006040518083038160008761646e5a03f19250505090508091505090565b600080828481151561179057fe5b0490508091505092915050565b60008060008414156117b257600091506117d1565b82840290508284828115156117c357fe5b041415156117cd57fe5b8091505b50929150505600a165627a7a723058208f0ce352edff8f81fd45ebed6b244a01d13bf4482d3ec34d304d82b1b2f3c0940029a165627a7a7230582092f3aaa58f5c9313bc115f24bf56463b20e17381c75f60c5385ef85b2fe294540029",
  "source": "pragma solidity ^0.4.18;\n\nimport './common/SafeMath.sol';\nimport './common/Destructible.sol';\nimport './Credit.sol';\n\n/** @title Peer to peer lending contract.\n  * Inherits the Ownable and Destructible contracts.\n  */\ncontract PeerToPeerLending is Destructible {\n    /** @dev Usings */\n    // Using SafeMath for our calculations with uints.\n    using SafeMath for uint;\n\n    /** @dev State variables */\n\n    // User structure\n    struct User {\n        // Is the user currently credited.\n        bool credited;\n\n        // The adress of the active credit.\n        address activeCredit;\n\n        // Is the user marked as fraudlent.\n        bool fraudStatus;\n    }\n\n    // We store all users in a mapping.\n    mapping(address => User) public users;\n\n    // Array of all credits adresses.\n    address[] public credits;\n\n    /** @dev Events */\n    event LogCreditCreated(address indexed _address, address indexed _borrower, uint indexed timestamp);\n\n    /** @dev Constructor */\n    function PeerToPeerLending() public {\n\n    }\n\n    /** @dev Credit application function.\n      * @param requestedAmount Requested funding amount in wei.\n      * @param repaymentsCount Requested repayments count.\n      * @param creditDescription The description of the funding.\n      * @return credit Return credit address.\n      * The function publishesh another contract which is the credit contract.\n      * The owner of the new contract is the present contract.\n      */\n    function applyForCredit(uint requestedAmount, uint repaymentsCount, bytes32 creditDescription) public returns(address _credit) {\n        // The user should not have been credited;\n        require(users[msg.sender].credited == false);\n\n        // THe user should not be marked as fraudlent.\n        require(users[msg.sender].fraudStatus == false);\n\n        // Assert there is no active credit for the user.\n        assert(users[msg.sender].activeCredit == 0);\n\n        // Mark the user as credited. Prevent from reentrancy.\n        users[msg.sender].credited = true;\n\n        // Create a new credit contract with the given parameters.\n        Credit credit = new Credit(requestedAmount, repaymentsCount, creditDescription);\n\n        // Set the user's active credit contract.\n        users[msg.sender].activeCredit = credit;\n\n        // Add the credit contract to our list with contracts.\n        credits.push(credit);\n\n        // Log the credit creation event.\n        LogCreditCreated(credit, msg.sender, now);\n\n        // Return the address of the newly created credit contract.\n        return credit;\n    }\n\n    /** @dev Get the list with all credits.\n      * @return credits Returns list of credit addresses.\n      */\n    function getCredits() public view returns(address[]) {\n        return credits;\n    }\n\n    /** @dev Sets user fraudlent status true.\n     * @param _borrower The user's address.\n     * @return users[_borrower].fraudStatus Boolean of the new fraud status.\n     */\n    function setFraudStatus(address _borrower) external returns(bool) {\n        // Update user fraud status.\n        users[_borrower].fraudStatus = true;\n        return users[_borrower].fraudStatus;\n    }\n}",
  "sourcePath": "/Users/milenradkov/git/softuni/blockchain-dev-camp/p2p-lending/smart-contracts/contracts/PeerToPeerLending.sol",
  "compiler": {
    "name": "solc",
    "version": "0.4.18+commit.9cf6e910.Emscripten.clang"
  },
  "schemaVersion": "1.0.1",
  "updatedAt": "2018-03-09T07:34:53.256Z"
}