{
  "contractName": "PeerToPeerLending",
  "abi": [
    {
      "constant": true,
      "inputs": [
        {
          "name": "",
          "type": "uint256"
        }
      ],
      "name": "credits",
      "outputs": [
        {
          "name": "",
          "type": "address"
        }
      ],
      "payable": false,
      "stateMutability": "view",
      "type": "function"
    },
    {
      "constant": false,
      "inputs": [],
      "name": "destroy",
      "outputs": [],
      "payable": false,
      "stateMutability": "nonpayable",
      "type": "function"
    },
    {
      "constant": true,
      "inputs": [],
      "name": "owner",
      "outputs": [
        {
          "name": "",
          "type": "address"
        }
      ],
      "payable": false,
      "stateMutability": "view",
      "type": "function"
    },
    {
      "constant": false,
      "inputs": [
        {
          "name": "requestedAmount",
          "type": "uint256"
        },
        {
          "name": "repaymentsCount",
          "type": "uint256"
        },
        {
          "name": "creditDescription",
          "type": "bytes32"
        }
      ],
      "name": "applyForCredit",
      "outputs": [
        {
          "name": "",
          "type": "address"
        }
      ],
      "payable": false,
      "stateMutability": "nonpayable",
      "type": "function"
    },
    {
      "constant": false,
      "inputs": [
        {
          "name": "_recipient",
          "type": "address"
        }
      ],
      "name": "destroyAndSend",
      "outputs": [],
      "payable": false,
      "stateMutability": "nonpayable",
      "type": "function"
    },
    {
      "inputs": [],
      "payable": false,
      "stateMutability": "nonpayable",
      "type": "constructor"
    },
    {
      "anonymous": false,
      "inputs": [
        {
          "indexed": true,
          "name": "_address",
          "type": "address"
        },
        {
          "indexed": true,
          "name": "_borrower",
          "type": "address"
        },
        {
          "indexed": true,
          "name": "timestamp",
          "type": "uint256"
        }
      ],
      "name": "LogCreditCreated",
      "type": "event"
    },
    {
      "anonymous": false,
      "inputs": [
        {
          "indexed": true,
          "name": "_currentOwner",
          "type": "address"
        },
        {
          "indexed": true,
          "name": "_newOwner",
          "type": "address"
        }
      ],
      "name": "LogOwnershipTransfered",
      "type": "event"
    }
  ],
  "bytecode": "0x6060604052341561000f57600080fd5b336000806101000a81548173ffffffffffffffffffffffffffffffffffffffff021916908373ffffffffffffffffffffffffffffffffffffffff160217905550611a0c8061005e6000396000f30060606040526004361061006d576000357c0100000000000000000000000000000000000000000000000000000000900463ffffffff168063036a1c221461007257806383197ef0146100d55780638da5cb5b146100ea578063a74e3f701461013f578063f5074f41146101b8575b600080fd5b341561007d57600080fd5b61009360048080359060200190919050506101f1565b604051808273ffffffffffffffffffffffffffffffffffffffff1673ffffffffffffffffffffffffffffffffffffffff16815260200191505060405180910390f35b34156100e057600080fd5b6100e8610230565b005b34156100f557600080fd5b6100fd6102c5565b604051808273ffffffffffffffffffffffffffffffffffffffff1673ffffffffffffffffffffffffffffffffffffffff16815260200191505060405180910390f35b341561014a57600080fd5b6101766004808035906020019091908035906020019091908035600019169060200190919050506102ea565b604051808273ffffffffffffffffffffffffffffffffffffffff1673ffffffffffffffffffffffffffffffffffffffff16815260200191505060405180910390f35b34156101c357600080fd5b6101ef600480803573ffffffffffffffffffffffffffffffffffffffff16906020019091905050610557565b005b60028181548110151561020057fe5b90600052602060002090016000915054906101000a900473ffffffffffffffffffffffffffffffffffffffff1681565b6000809054906101000a900473ffffffffffffffffffffffffffffffffffffffff1673ffffffffffffffffffffffffffffffffffffffff163373ffffffffffffffffffffffffffffffffffffffff1614151561028b57600080fd5b6000809054906101000a900473ffffffffffffffffffffffffffffffffffffffff1673ffffffffffffffffffffffffffffffffffffffff16ff5b6000809054906101000a900473ffffffffffffffffffffffffffffffffffffffff1681565b60008060001515600160003373ffffffffffffffffffffffffffffffffffffffff1673ffffffffffffffffffffffffffffffffffffffff16815260200190815260200160002060000160009054906101000a900460ff16151514151561034f57600080fd5b6000600160003373ffffffffffffffffffffffffffffffffffffffff1673ffffffffffffffffffffffffffffffffffffffff16815260200190815260200160002060000160019054906101000a900473ffffffffffffffffffffffffffffffffffffffff1673ffffffffffffffffffffffffffffffffffffffff161415156103d357fe5b60018060003373ffffffffffffffffffffffffffffffffffffffff1673ffffffffffffffffffffffffffffffffffffffff16815260200190815260200160002060000160006101000a81548160ff0219169083151502179055508484846104386105cb565b8084815260200183815260200182600019166000191681526020019350505050604051809103906000f080151561046e57600080fd5b905080600160003373ffffffffffffffffffffffffffffffffffffffff1673ffffffffffffffffffffffffffffffffffffffff16815260200190815260200160002060000160016101000a81548173ffffffffffffffffffffffffffffffffffffffff021916908373ffffffffffffffffffffffffffffffffffffffff160217905550423373ffffffffffffffffffffffffffffffffffffffff168273ffffffffffffffffffffffffffffffffffffffff167fa0c75b76492543c8eafdc7e35272287bd6f229dcf0f6c22429343044718c510860405160405180910390a4809150509392505050565b6000809054906101000a900473ffffffffffffffffffffffffffffffffffffffff1673ffffffffffffffffffffffffffffffffffffffff163373ffffffffffffffffffffffffffffffffffffffff161415156105b257600080fd5b8073ffffffffffffffffffffffffffffffffffffffff16ff5b604051611405806105dc83390190560060606040526001600c60006101000a81548160ff021916908315150217905550341561002a57600080fd5b60405160608061140583398101604052808051906020019091908051906020019091908051906020019091905050336000806101000a81548173ffffffffffffffffffffffffffffffffffffffff021916908373ffffffffffffffffffffffffffffffffffffffff16021790555032600160006101000a81548173ffffffffffffffffffffffffffffffffffffffff021916908373ffffffffffffffffffffffffffffffffffffffff16021790555061138860058190555082600281905550816006819055508160078190555061011b6005546002546101cb64010000000002611152179091906401000000009004565b6003819055506101456006546003546101e964010000000002611170179091906401000000009004565b60088190555080600b81600019169055504260098190555042600160009054906101000a900473ffffffffffffffffffffffffffffffffffffffff1673ffffffffffffffffffffffffffffffffffffffff167ff9f75c99c0e3522cd19ffc66fd6c94989a3f0821d37d5c5bb176aab904c6335d60405160405180910390a3505050610204565b60008082840190508381101515156101df57fe5b8091505092915050565b60008082848115156101f757fe5b0490508091505092915050565b6111f2806102136000396000f30060606040526004361061013e576000357c0100000000000000000000000000000000000000000000000000000000900463ffffffff16806302fb0c5e1461014357806312065fe014610170578063162fce691461019957806328fd10d7146101c257806329c68dc1146102135780633ccfd60b14610228578063402d88831461023d57806348c21947146102475780637284e4161461027057806378860268146102a15780637df1f1b9146102ca57806383197ef01461031f5780638da5cb5b146103345780639366b60d14610389578063b9172dec146103b2578063b99bea24146103d8578063c392f76614610401578063e8b5e51f1461042a578063e8bb529914610434578063efd475ab1461045d578063f35eeaef14610472578063f5074f411461049b578063f98b8028146104d4578063fbaa78f3146104fd575b600080fd5b341561014e57600080fd5b61015661054a565b604051808215151515815260200191505060405180910390f35b341561017b57600080fd5b61018361055d565b6040518082815260200191505060405180910390f35b34156101a457600080fd5b6101ac61057c565b6040518082815260200191505060405180910390f35b34156101cd57600080fd5b6101f9600480803573ffffffffffffffffffffffffffffffffffffffff16906020019091905050610582565b604051808215151515815260200191505060405180910390f35b341561021e57600080fd5b6102266105a2565b005b341561023357600080fd5b61023b610629565b005b61024561076e565b005b341561025257600080fd5b61025a610982565b6040518082815260200191505060405180910390f35b341561027b57600080fd5b610283610988565b60405180826000191660001916815260200191505060405180910390f35b34156102ac57600080fd5b6102b461098e565b6040518082815260200191505060405180910390f35b34156102d557600080fd5b6102dd610994565b604051808273ffffffffffffffffffffffffffffffffffffffff1673ffffffffffffffffffffffffffffffffffffffff16815260200191505060405180910390f35b341561032a57600080fd5b6103326109ba565b005b341561033f57600080fd5b610347610a4f565b604051808273ffffffffffffffffffffffffffffffffffffffff1673ffffffffffffffffffffffffffffffffffffffff16815260200191505060405180910390f35b341561039457600080fd5b61039c610a74565b6040518082815260200191505060405180910390f35b34156103bd57600080fd5b6103d6600480803560ff16906020019091905050610a7a565b005b34156103e357600080fd5b6103eb610afb565b6040518082815260200191505060405180910390f35b341561040c57600080fd5b610414610b01565b6040518082815260200191505060405180910390f35b610432610b07565b005b341561043f57600080fd5b610447610ddf565b6040518082815260200191505060405180910390f35b341561046857600080fd5b610470610de5565b005b341561047d57600080fd5b6104856110a1565b6040518082815260200191505060405180910390f35b34156104a657600080fd5b6104d2600480803573ffffffffffffffffffffffffffffffffffffffff169060200190919050506110a7565b005b34156104df57600080fd5b6104e761111b565b6040518082815260200191505060405180910390f35b341561050857600080fd5b610534600480803573ffffffffffffffffffffffffffffffffffffffff16906020019091905050611121565b6040518082815260200191505060405180910390f35b600c60009054906101000a900460ff1681565b60003073ffffffffffffffffffffffffffffffffffffffff1631905090565b60065481565b600d6020528060005260406000206000915054906101000a900460ff1681565b6000809054906101000a900473ffffffffffffffffffffffffffffffffffffffff1673ffffffffffffffffffffffffffffffffffffffff163373ffffffffffffffffffffffffffffffffffffffff161415156105fd57600080fd5b600c60009054906101000a900460ff1615600c60006101000a81548160ff021916908315150217905550565b60011515600c60009054906101000a900460ff16151514151561064b57600080fd5b600160009054906101000a900473ffffffffffffffffffffffffffffffffffffffff1673ffffffffffffffffffffffffffffffffffffffff163373ffffffffffffffffffffffffffffffffffffffff161415156106a757600080fd5b6002543073ffffffffffffffffffffffffffffffffffffffff1631101515156106cf57600080fd5b6001600c60016101000a81548160ff021916908360038111156106ee57fe5b0217905550600160009054906101000a900473ffffffffffffffffffffffffffffffffffffffff1673ffffffffffffffffffffffffffffffffffffffff166108fc3073ffffffffffffffffffffffffffffffffffffffff16319081150290604051600060405180830381858888f19350505050151561076c57600080fd5b565b6000600160009054906101000a900473ffffffffffffffffffffffffffffffffffffffff1673ffffffffffffffffffffffffffffffffffffffff163373ffffffffffffffffffffffffffffffffffffffff161415156107cc57600080fd5b600160038111156107d957fe5b600c60019054906101000a900460ff1660038111156107f457fe5b14151561080057600080fd5b600060075411151561081157600080fd5b600854341015151561082257600080fd5b60035460045410151561083157fe5b6007600081548092919060019003919050555042600a81905550600090506008543411156109215761086e6008543461113990919063ffffffff16565b9050610883813461113990919063ffffffff16565b60085414151561088f57fe5b34811115151561089b57fe5b3373ffffffffffffffffffffffffffffffffffffffff166108fc829081150290604051600060405180830381858888f1935050505015156108db57600080fd5b42813373ffffffffffffffffffffffffffffffffffffffff167f5c9874487a2258c6bd6dc39a2cfcf7ea944b50b79d9a7152668779687b2ebd8d60405160405180910390a45b610948610937823461113990919063ffffffff16565b60045461115290919063ffffffff16565b600481905550600354600454141561097f576002600c60016101000a81548160ff0219169083600381111561097957fe5b02179055505b50565b60085481565b600b5481565b60025481565b600160009054906101000a900473ffffffffffffffffffffffffffffffffffffffff1681565b6000809054906101000a900473ffffffffffffffffffffffffffffffffffffffff1673ffffffffffffffffffffffffffffffffffffffff163373ffffffffffffffffffffffffffffffffffffffff16141515610a1557600080fd5b6000809054906101000a900473ffffffffffffffffffffffffffffffffffffffff1673ffffffffffffffffffffffffffffffffffffffff16ff5b6000809054906101000a900473ffffffffffffffffffffffffffffffffffffffff1681565b600a5481565b6000809054906101000a900473ffffffffffffffffffffffffffffffffffffffff1673ffffffffffffffffffffffffffffffffffffffff163373ffffffffffffffffffffffffffffffffffffffff16141515610ad557600080fd5b80600c60016101000a81548160ff02191690836003811115610af357fe5b021790555050565b60095481565b60055481565b6000806003811115610b1557fe5b600c60019054906101000a900460ff166003811115610b3057fe5b141515610b3c57600080fd5b600090506002543073ffffffffffffffffffffffffffffffffffffffff1631101515610c8657610b8e6002543073ffffffffffffffffffffffffffffffffffffffff163161113990919063ffffffff16565b9050610bba813073ffffffffffffffffffffffffffffffffffffffff163161113990919063ffffffff16565b600254141515610bc657fe5b348111151515610bd257fe5b6000811115610c61573373ffffffffffffffffffffffffffffffffffffffff166108fc829081150290604051600060405180830381858888f193505050501515610c1b57600080fd5b42813373ffffffffffffffffffffffffffffffffffffffff167f566803f6e271b911c84f87631bcd310d6a6510bf8882577a96fc76975703e43160405160405180910390a45b6001600c60016101000a81548160ff02191690836003811115610c8057fe5b02179055505b6001600d60003373ffffffffffffffffffffffffffffffffffffffff1673ffffffffffffffffffffffffffffffffffffffff16815260200190815260200160002060006101000a81548160ff021916908315150217905550610d42610cf4823461113990919063ffffffff16565b600e60003373ffffffffffffffffffffffffffffffffffffffff1673ffffffffffffffffffffffffffffffffffffffff1681526020019081526020016000205461115290919063ffffffff16565b600e60003373ffffffffffffffffffffffffffffffffffffffff1673ffffffffffffffffffffffffffffffffffffffff1681526020019081526020016000208190555042610d99823461113990919063ffffffff16565b3373ffffffffffffffffffffffffffffffffffffffff167f1b0969ce7f5b05c5e0969329a05cdbd7e2e2f6cee33ba26fd6e6bbcff82312cd60405160405180910390a450565b60075481565b60008060011515600c60009054906101000a900460ff161515141515610e0a57600080fd5b60011515600d60003373ffffffffffffffffffffffffffffffffffffffff1673ffffffffffffffffffffffffffffffffffffffff16815260200190815260200160002060009054906101000a900460ff161515141515610e6957600080fd5b60026003811115610e7657fe5b600c60019054906101000a900460ff166003811115610e9157fe5b141515610e9d57600080fd5b6000600e60003373ffffffffffffffffffffffffffffffffffffffff1673ffffffffffffffffffffffffffffffffffffffff16815260200190815260200160002054111515610eeb57600080fd5b610f3f600e60003373ffffffffffffffffffffffffffffffffffffffff1673ffffffffffffffffffffffffffffffffffffffff1681526020019081526020016000205460035461117090919063ffffffff16565b9150610f9382600e60003373ffffffffffffffffffffffffffffffffffffffff1673ffffffffffffffffffffffffffffffffffffffff1681526020019081526020016000205461118b90919063ffffffff16565b9050803073ffffffffffffffffffffffffffffffffffffffff163110151515610fb857fe5b3373ffffffffffffffffffffffffffffffffffffffff166108fc829081150290604051600060405180830381858888f193505050501515610ff857600080fd5b42813373ffffffffffffffffffffffffffffffffffffffff167f052f6685df2f773f854b17db1d82e2352e222010daaf8175761f02ef8782c40360405160405180910390a460003073ffffffffffffffffffffffffffffffffffffffff1631141561109d576000600c60006101000a81548160ff0219169083151502179055506003600c60016101000a81548160ff0219169083600381111561109757fe5b02179055505b5050565b60035481565b6000809054906101000a900473ffffffffffffffffffffffffffffffffffffffff1673ffffffffffffffffffffffffffffffffffffffff163373ffffffffffffffffffffffffffffffffffffffff1614151561110257600080fd5b8073ffffffffffffffffffffffffffffffffffffffff16ff5b60045481565b600e6020528060005260406000206000915090505481565b600082821115151561114757fe5b818303905092915050565b600080828401905083811015151561116657fe5b8091505092915050565b600080828481151561117e57fe5b0490508091505092915050565b60008060008414156111a057600091506111bf565b82840290508284828115156111b157fe5b041415156111bb57fe5b8091505b50929150505600a165627a7a72305820a37b484a0b75df79f657239b7d12fa8682ed76fce2aebc98109ead78dad15c6a0029a165627a7a723058203e1c023baa46be4150f7ce9a71f9fbb79e3f209b4cd556f91aacd2c8aedabfc30029",
  "source": "pragma solidity ^0.4.18;\n\nimport './common/SafeMath.sol';\nimport './common/Destructible.sol';\nimport './Credit.sol';\n/** @title Peer to peer lending contract.\n  * Inherits the Ownable and Destructible contracts.\n  */\ncontract PeerToPeerLending is Destructible {\n    /** @dev Usings */\n    // Using SafeMath for our calculations with uints.\n    using SafeMath for uint;\n\n    /** @dev State variables */\n\n    // User structure\n    struct User {\n        bool credited;\n        address activeCredit;\n    }\n\n    mapping(address => User) users;\n    \n    address[] public credits;\n\n    /** @dev Events */\n    event LogCreditCreated(address indexed _address, address indexed _borrower, uint indexed timestamp);\n\n    /** @dev Modifiers */\n\n    function PeerToPeerLending() public {\n\n    }\n\n    function applyForCredit(uint requestedAmount, uint repaymentsCount, bytes32 creditDescription) public returns(address) {\n        // The person should not have active credits;\n        require(users[msg.sender].credited == false);\n        assert(users[msg.sender].activeCredit == 0);\n      \n        users[msg.sender].credited = true;\n        Credit credit = new Credit(requestedAmount, repaymentsCount, creditDescription);\n        users[msg.sender].activeCredit = credit;\n\n        LogCreditCreated(credit, msg.sender, now);\n        return credit;\n    }\n}",
  "sourcePath": "/Users/milenradkov/git/softuni/blockchain-dev-camp/p2p-lending/smart-contracts/contracts/PeerToPeerLending.sol",
  "compiler": {
    "name": "solc",
    "version": "0.4.18+commit.9cf6e910.Emscripten.clang"
  },
  "schemaVersion": "1.0.1",
  "updatedAt": "2018-03-08T09:01:50.975Z"
}